:0400000067EF00F0B6
:0600080051826AEF0EF0C8
:100018005180D8CF08F0E8CF09F0E0CF0AF0E1CF5F
:100028000BF0E2CF0CF0D9CF0DF0DACF0EF0A3B27F
:10003800A4A203D0F8EC0DF036D0A3B4A4A402D047
:10004800A49431D09DB69EA603D03CEC09F02BD0E9
:100058009DB89EA803D0B4EC0FF025D09DBA9EAAF7
:100068000BD04FB803D0C3EC09F01DD0AECF45F08C
:10007800456A9E9A4F9817D0F2BAF2A403D04AEC78
:100088000DF011D0A3B0A4A003D0B8EC0CF00BD0A5
:10009800A3B8A4A803D0E9EC11F005D09DBC9EAC90
:1000A80002D0D5EC07F00EC0DAFF0DC0D9FF0CC0A6
:1000B800E2FF0BC0E1FF0AC0E0FF09C0E8FF08C08B
:1000C800D8FF5190100020EF0EF0406E91D380C2FF
:1000D800FAF0D00E0001FA27FA47FA478B50FA19BE
:1000E800FB0BFA198B6E1200AC0E1B6EB90E1C6E50
:1000F8003F0E1D6E99C01EF01F6A6CEC04F0AC0E2A
:100108000F6E8AEF0AF0AC0E1B6EB70E1C6E3E0E19
:100118001D6E96C01EF01F6A99C020F0216A98C013
:1001280022F0236A86C024F087C025F084C026F018
:1001380085C027F09BC028F0296A9EC02AF02B6A48
:100148006CEC04F0DCD7AC0E1B6EEC0E1C6E3F0E94
:100158001D6E000E30EC0FF01E6E1F6A010E30ECA3
:100168000FF0206E216AA8C022F0236A6CEC04F01C
:10017800C6D7416A426A4150B508D96EDA6A4D500D
:1001880041240F6E000E4220106E126A0A0E116E84
:10019800ECEC0BF00F506A0FE16EE26AE75016ECD8
:1001A8000FF0DF6E414A422A42BEE5D7425003E1D2
:1001B8000A0E415CE0E30001B66BA1D7AC0E1B6EE2
:1001C8009B0E1C6E3F0E1D6EA6C01EF01F6AA0C0BF
:1001D80020F0216AA4C022F0236A6CEC04F08FD7C7
:1001E80002018051050DF3CF96F01200AC0E1B6E84
:1001F800F90E1C6E3F0E1D6EABC01EF01F6A6CEC34
:1002080004F07DD7AC0E1B6EB90E1C6E3F0E1D6E32
:1002180002018051D00F30EC0FF01E6E1F6A6CEC9B
:1002280004F06DD70201805166EF10F0020182518F
:100238000A0DF3CFFAF08151640DF3500001FA254D
:1002480002018325300F0001916F120002018251D3
:100258000A0DF3CFFAF08151640DF3500001FA252D
:1002680002018325300F4A6E1200D00E0001FA6F8A
:10027800FB69020180510001FC6FFD6BFA51FC27FC
:10028800FB51FD23FD51D8A41200FC51010AD8B43A
:100298001200030ACBE0010AD9E0120002018251E0
:1002A8000A0DF3CFFAF08151640DF3500001FA25DD
:1002B80002018325300F4B6E4BC096F096C095F027
:1002C800D7D0020182510A0DF3CFFAF08151640DA3
:1002D800F3500001FA2502018325300F0001A56FB4
:1002E800C7D0020182510A0DF3CFFAF08151640D93
:1002F800F3500001FA2502018325300F0001A36F96
:10030800B7D0020182510A0DF3CFFAF08151640D82
:10031800F3500001FA2502018325300F0001A26F76
:10032800A2C0ECF0A5D0020182510A0DF3CFFAF079
:100338008151640DF3500001FA2502018325300F25
:100348000001A16F95D002018151D00F00019D6F6E
:100358009DC09EF08DD002018151D00F00019B6F8E
:100368009AC09BF085D0020182510A0DF3CFFAF0B2
:100378008151640DF3500001FA2502018325300FE5
:100388004B6E4BC094F074D0020182510A0DF3CF2A
:10039800FAF08151640DF3500001FA25020183251A
:1003A800300F4B6E4BC093F063D0020182510A0D9F
:1003B800F3CFFAF08151640DF3500001FA250201E0
:1003C8008325300F4B6E4BC092F052D0D00E0001F7
:1003D800FA6FFB69020180510001FC6FFD6BFA5155
:1003E800FC27FB51FD23FD5143E1FC5101E156D7A8
:1003F800010A01E166D7030A01E173D7010A81E026
:10040800070A91E0010A9FE0030AA5E0010AABE0B0
:100418000F0ABAE0010AC9E02BD0AC0E1B6E6A0EB7
:100428001C6E3F0E1D6E96C01EF01F6AA5C020F000
:10043800216AA3C022F0236AA2C024F0256AA1C0C1
:1004480026F0276A6CEC04F05AD6AC0E1B6EBC0E74
:100458001C6E3F0E1D6EA9C01EF01F6AA6C020F0BC
:10046800216A6CEC04F04BD681C2ACF0AD6B47D678
:10047800D00E0001FA6FFB69020180510001FC6F88
:10048800FD6BFA51FC27FB51FD23FD51D8A4120046
:10049800FC51C3E0010AD9E0080AD8A41200E4D745
:1004A800080E67EF11F0AC0E1B6EB90E1C6E3F0EF6
:1004B8001D6EAAC01EF01F6A6CEC04F020D6AC0EAC
:1004C8001B6E160E1C6E3F0E1D6E000E30EC0FF0EC
:1004D8001E6E1F6A010E30EC0FF0206E216AA8C054
:1004E80022F0236AA0C024F0256A99C026F0276A62
:1004F80098C028F0296A96C02AF02B6AA5C02CF06B
:100508002D6AA3C02EF02F6AA2C030F0316AA1C0B4
:1005180032F0336A010E80A4000E346E356A010E83
:1005280082A6000E366E376A010E8DA4000E386E54
:10053800396AB0CF3AF03B6AAFCF3CF03D6AAAC007
:100548003EF03F6A6CEC04F0DAD5070E67EF11F065
:10055800000E66EC10F00001AB6B120082A6DBD037
:1005680002018051D00F00018E6F02018151D00F1E
:100578000001906F020183510A0DF3CFFAF0825106
:10058800640DF3500001FA2502018425300F0001A3
:100598008F6F08D04F8C04D04F9C4F8A17D04F9C38
:1005A8004F9A14D0D00EFA6FFB69020185510001F1
:1005B800FC6FFD6BFA51FC27FB51FD23FD51EFE168
:1005C800FC51010AE7E0030AE7E0E9D7310E02012E
:1005D800851902E14F8C01D04F9C9DC09EF09AC0B6
:1005E8009BF0010E0001AB6F18D0A95101E1B7D003
:1005F800020EA919D8B41200F7EC10F0A0EC0FF015
:10060800AED0A95101E1AFD0030EA919D8B4120098
:10061800F7EC10F0A0EC0FF0A6D08E51F2E0010A32
:10062800D8A41200E2D782A676D002018051D00F5A
:1006380000018E6F02018151D00F0001906F0201FD
:1006480083510A0DF3CFFAF08251640DF350000183
:10065800FA2502018425300F00018F6F010EAB6F60
:1006680018D0A95101E188D0050EA919D8B41200F3
:10067800F7EC10F0A0EC0FF07FD0A95101E17FD08A
:10068800040EA919D8B41200F7EC10F0A0EC0FF082
:1006980076D08E51F2E0010AD8A41200E2D782A6E1
:1006A8003AD002018051D00F00018E6F02018151B2
:1006B800D00F0001906F020183510A0DF3CFFAF0B9
:1006C8008251640DF3500001FA2502018425300F90
:1006D80000018F6F010EAB6F18D0A95101E158D0FE
:1006E800090EA919D8B41200F7EC10F0A0EC0FF01D
:1006F8004FD0A95101E14FD0080EA919D8B4120062
:10070800F7EC10F0A0EC0FF046D08E51F2E0010AA1
:10071800D8A41200E2D7040E67EF11F0020180514D
:10072800D00F0001976F02018151D00F00018E6F29
:10073800020183510A0DF3CFFAF08251640DF35090
:100748000001FA2502018425300F00019F6F2CD08B
:10075800A86B9DC09EF09AC09BF008D0A951020ECC
:1007680066EF10F0A951030E66EF10F08E51FAE013
:10077800010AD8A41200F2D7050E66EF10F0040E95
:1007880066EF10F08E51FBE0010AD8A41200F4D7EE
:10079800090E66EF10F0080E66EF10F08E51FBE0C0
:1007A800010AD8A41200F4D79751010AD1E0030A2C
:1007B800E9E0010AD8A41200F1D7020180B102D001
:1007C8008D9401D08D841200000E66EC10F0C3D613
:1007D80080C2A6F0120002018051A6EF0DF0000EB3
:1007E80066EF10F00D0E02014019D8A48B84120098
:1007F8004050300AF4E0010AD8B41200030AD8B411
:100808001200010AD8B41200070AD8B41200010A6B
:10081800D8B41200030AD8B41200010AD8B41200DE
:10082800760A02E1F7EF10F0030A01E138D7060A69
:10083800D8B41200010A01E1E5D4030AD8B41200C1
:100848000E0A01E185D6010AC6E0050A01E13FD496
:10085800010A01E163D71D0A01E1B8D5020AADE03A
:10086800010A01E12CD6070A01E11AD6010AD8B417
:100878001200030A01E1FCD5010A01E166D60F0A5C
:1008880001E16CD6020A01E1CED6380A01E1AED404
:10089800010A01E1A5D4060A01E1C4D4030A98E0DB
:1008A8000F0A01E121D4050A01E163D4010A01E13B
:1008B800DCD41D0A01E127D4010A01E17FD4030A2F
:1008C80083E0010A01E13FD4050A01E1ECD58AD7AA
:1008D8001E0E0001F26F5ED1250EF91907E01B50BC
:1008E800D96EDA6AF9C0DFFF1B2A54D1F76BF86BAF
:1008F800F66B03D0F6851C4A1D2A1CC0F6FF1DC0E6
:10090800F7FF0800F550300AF5E01CC0F6FF1DC0DF
:10091800F7FF0800F550A1EC10F032E30001F76B87
:10092800F86BF7C00FF0F8C010F0126A0A0E116EDB
:1009380001EC10F00FC0F7F010C0F8F0D00E000175
:10094800ED6FEE691CC0F6FF1DC0F7FF0800F550FB
:10095800EF6FF06BED51EF27EE51F023EF51F727D2
:10096800F051F8231C4A1D2A1CC0F6FF1DC0F7FFD2
:100978000800F550A1EC10F003E3D3D7F68F16D09A
:100988001CC0F6FF1DC0F7FF1C4A1D2A0800F5CF42
:10099800F9F00001F95101E109D1580AEFE03C0AE8
:1009A80005E00D0A03E0110AE9E0F4D0F6BF12D021
:1009B800F251D96EDA6ADECFF4F0DDCFF5F0020E2F
:1009C800F227F5AF3DD0030EF613F46DF51FD8B03E
:1009D800F52B36D0F251D96EDA6ADECFF4F0DDCFDE
:1009E800F5F0020EF2272CD0010EF96FF951020D25
:1009F800A50EF324F66E3E0EF420F76E0900F550AE
:100A0800F45D0900F550F55920E3F92B050EF919A5
:100A18001CE0ECD7010EF96FF951020DAF0EF3246B
:100A2800F66E3E0EF420F76E0900F550F45D0900ED
:100A3800F550F5590AE3F92B040EF91906E0ECD73D
:100A4800F651800BD1E0800AE5E0F751F81108E093
:100A5800F6C0EDF0030EED1703E0F707D8A0F8078E
:100A6800800EF9BF7F0EED6FF751F95DF851800ADE
:100A7800ED5907E2F951F75F000EF9BFFF0EF85B79
:100A880002D0F76BF86BF6A518D0F6C0EDF0030EA0
:100A9800ED1706E01B50D96EDA6A2D0EDF6E1B2AA1
:100AA800F751F81124E01B50D96EDA6A300EDF6E68
:100AB8001B2AF707D8A0F807F3D7F751F8110CE06D
:100AC8001B50D96EDA6A200EDF6E1B2AF707D8A0F2
:100AD800F807F751F811F4E1F6C0EDF0030EED1741
:100AE80006E01B50D96EDA6A2D0EDF6E1B2AF9C09C
:100AF800F3F04DD0F351020DA50EF324F66E3E0E21
:100B0800F420F76E0900F5CF11F00A00F5CF12F0C6
:100B1800F4C00FF0F5C010F045EC0EF00FC016F061
:100B280010C017F0196A0A0E186E8BEC0EF01650EA
:100B3800300FF96F26D0F4C00FF0F5C010F0F35164
:100B4800020DAF0EF324F66E3E0EF420F76E090088
:100B5800F5CF11F00A00F5CF12F045EC0EF00F506A
:100B68000F0BF16FDB0EF125F66EF76A3F0EF722D9
:100B78000800F5CFF9F005D0F651800BBBE0800AEC
:100B8800DAE01B50D96EDA6AF9C0DFFF1B2AF307D7
:100B9800F329F2E11CC0F6FF1DC0F7FF1C4A1D2A0D
:100BA8000800F5CFF9F0F95101E096D61B50D96E3F
:100BB800DA6ADF6A000C76EC0FF060EC0FF00DD10A
:100BC800010EEEEC0FF04FBC1CD0010EFE6F620E52
:100BD800FF6F000EA8EC08F000019B079B5108E08E
:100BE800A66B030EEEEC0FF0020E66EC10F0E3D7E6
:100BF800020E66EC10F00001AB6B070E66EC10F00D
:100C0800DAD7000E66EC10F00001AB6BD4D7010EFA
:100C1800EEEC0FF0010EFE6F620EFF6F010EA8ECF6
:100C280008F000019B079B5108E0A66B030EEEEC51
:100C38000FF0030E66EC10F0BED7030E66EC10F052
:100C48000001AB6B070E66EC10F0B5D70001AB6B7B
:100C5800460E66EC10F0AFD7010E30EC0FF0020A2A
:100C6800AFE0010AD4E0F2D7010EEEEC0FF0010E6E
:100C7800FE6F620EFF6F000EA8EC08F000019E07E1
:100C88009E5108E09C6B030EEEEC0FF0020E66EC32
:100C980010F091D7020E66EC10F00001AB6B070E56
:100CA80066EC10F088D7010EEEEC0FF0010EFE6F27
:100CB800620EFF6F010EA8EC08F000019E079E511E
:100CC80008E09C6B030EEEEC0FF0030E66EC10F0E0
:100CD80072D7030E66EC10F00001AB6B4D0E66EC9C
:100CE80010F069D70001AB6B460E66EC10F063D7C5
:100CF800010E30EC0FF0020AB7E0010AD4E0F2D797
:100D0800010EAB6F4D0E66EC10F002018A6B010EFE
:100D18008FEC11F0040E23EC11F0000E8FEC11F0A3
:100D2800020E23EC11F002018A2B030E8A65EFD71D
:100D380042D7010EAB6F4D0E66EC10F002018A6BC4
:100D4800010E8FEC11F0040E23EC11F0000E8FEC65
:100D580011F0020E23EC11F002018A2B030E8A65B2
:100D6800EFD729D7A851010ACBE0030AE2E0010A2C
:100D780001E172D7070ABCE01ED790C0FEF08FC011
:100D8800FFF08E51A8EC08F016D790C0FEF08FC087
:100D9800FFF08E51A8EC08F00ED790C087F28FC0F4
:100DA80088F28E5142EC0BF006D790C087F28FC0C4
:100DB80088F28E5142EC0BF0FED690C087F28FC0BD
:100DC80088F28E5197EC0BF0F6D690C087F28FC060
:100DD80088F28E5197EC0BF0EED60001A951010A6A
:100DE800C1E0030ACAE0010AD0E0070ADEE0010A0E
:100DF800D4E00D0AEAE0010AE0E0DDD6C7D0C4CFAE
:100E080099F04F8E9E9C9951965D846F856BD8A002
:100E1800850785BF08D0855103E10A0E845D03E389
:100E2800864B872B06D085AF04D084518627855101
:100E380087237B500F6E106A86510F5C1050800A12
:100E4800116E8751800A115803E27BCF86F003D0D8
:100E580087AF02D0866B876B8645E846FC0B796EB8
:100E680086C00FF087C010F0D8900F361036D89093
:100E78000F36103610C00FF0106A0FBE10680F50F2
:100E8800786E1200C4CF98F04F8E9E9C9851965D54
:100E9800846F856BD8A0850785BF08D0855103E18D
:100EA8000A0E845D03E3864B872B05D085AF03D0FC
:100EB8008607D8A087077B500F6E106A86510F5C93
:100EC8001050800A116E8751800A115803E27BCFB7
:100ED80086F003D087AF02D0866B876B8645E846DD
:100EE800FC0B776E86C00FF087C010F0D8900F36D5
:100EF8001036D8900F36103610C00FF0106A0FBE9B
:100F080010680F50766E1200C4CF98F04F8E9E9CDA
:100F18009851965D846F856BD8A0850785BF08D0EA
:100F2800855103E10A0E845D03E3864B872B05D0C8
:100F380085AF03D08607D8A087077B500F6E106A4D
:100F480086510F5C1050800A116E8751800A115823
:100F580003E27BCF86F003D087AF02D0866B876B26
:100F68008645E846FC0B776E86C00FF087C010F008
:100F7800D8900F361036D8900F36103610C00FF0B4
:100F8800106A0FBE10680F50766E1200000197515C
:100F9800010A01E134D7030A01E174D7010AB4E078
:100FA8001200C7D0C4CF99F04F8E9E9C9951965D80
:100FB800846F856BD8A0850785BF08D0855103E16C
:100FC8000A0E845D03E3864B872B06D085AF04D0D9
:100FD80084518627855187237B50056E066A865182
:100FE800055C0650800A076E8751800A075803E29D
:100FF8007BCF86F003D087AF02D0866B876B8645A0
:10100800E846FC0B796E86C005F087C006F0D890DC
:1010180005360636D8900536063606C005F0066A47
:1010280005BE06680550786E1200C4CF98F04F8E42
:101038009E9C9851965D846F856BD8A0850785BF67
:1010480008D0855103E10A0E845D03E3864B872BA4
:1010580005D085AF03D08607D8A087077B50056EDB
:10106800066A8651055C0650800A076E8751800A19
:10107800075803E27BCF86F003D087AF02D0866B98
:10108800876B8645E846FC0B776E86C005F087C0FF
:1010980006F0D89005360636D8900536063606C0CE
:1010A80005F0066A05BE06680550766E1200C4CFC4
:1010B80098F04F8E9E9C9851965D846F856BD8A052
:1010C800850785BF08D0855103E10A0E845D03E3D7
:1010D800864B872B05D085AF03D08607D8A0870716
:1010E8007B50056E066A8651055C0650800A076EBD
:1010F8008751800A075803E27BCF86F003D087AF79
:1011080002D0866B876B8645E846FC0B776E86C0F7
:1011180005F087C006F0D89005360636D890053613
:10112800063606C005F0066A05BE06680550766EE6
:10113800120000019751010A01E134D7030A01E1C5
:1011480074D7010AB4E012000201876F0A0E000189
:10115800966FA3EC11F079EC0DF0CC6A9E92FFA388
:1011680047EC11F0010E0001976FEAEC0CF0020158
:10117800870503E18C9A8C8802D08C988C8A040E9F
:10118800796E786A010E6B6E8B800001856B846FB7
:101198008445E846FC0B796E8445E846030B786E77
:1011A800826B836B4F9EA3989D8CF28CF28ECFEC52
:1011B80011F09E9C3FEC11F051D0020E9F6FFF3949
:1011C8000F0BA76FFFA503D0D890A735A7274FAA65
:1011D8000FD076EC0FF060EC0FF0020E0001A919A9
:1011E80003E0030EA9190CE1A751A65D09E2F1D7A6
:1011F80076EC0FF060EC0FF00001A751A65DF8E364
:10120800E1EC11F0E3EC11F0020EA91903E0030E72
:10121800A91928E1000E66EC10F00001AB6B22D092
:10122800FFC09FF0A06B2DEC11F0DBEC0FF049EC48
:101238000FF00201870504E1020E0001A919F7E089
:101248000201875104E1030E0001A919F0E0BFEC87
:1012580011F0E1EC11F0E3EC11F004D0FE51E0E004
:10126800010AABE0A3989D9CA3EC11F0F7EF10F0F6
:101278009E96C9CF07F075D00D0E071812E0442AC4
:10128800400E4424D96EDA6A010EDA22DF5009E0F2
:10129800400E4424D96EDA6A010EDA22DF50C96E94
:1012A80012004F901200000E4324D96EDA6A020E23
:1012B800DA2207C0DFFF000E4324D96EDA6A020E75
:1012C800DA22DF50010ED8A4000E056E000E43246A
:1012D800D96EDA6A020EDA220D0EDE18010ED8A4D3
:1012E800000E0510E8A031D0435015E0076A0FD072
:1012F800000E0724D96EDA6A020EDA22000E0724DD
:10130800E16EE26A010EE222DFCFE7FF072A4350CF
:10131800075CEEE34F84000E4324D96EDA6A010EAF
:10132800DA22000EDF6A436A12004350056E066A2D
:10133800052A000E0622400E0518061004E10101D8
:10134800006B436A1200432A1200010E4FA4000EDC
:10135800056E066A0650D8A412000550E6E0010A98
:101368001200010E4FA0000E056E066A0650D8A4A2
:101378001200055098E0010A01E17ED712009E9AFA
:10138800ABA204D0AB9EAB8EAB98AB88400E452485
:10139800D96EDA6A020EDA22AECFDFFF400E45249C
:1013A800D96EDA6A020EDA22DF50010ED8A4000ED6
:1013B800056E400E4524D96EDA6A020EDA220D0E49
:1013C800DE18010ED8A4000E0510E8A032D0455052
:1013D80015E0076A0FD0400E0724D96EDA6A020EAC
:1013E800DA22C00E0724E16EE26A010EE222DFCFA4
:1013F800E7FF072A4550075CEEE34F86C00E4524F9
:10140800D96EDA6A010EDA22000EDF6A456A120026
:101418004550056E066A052A000E0622400E05187C
:10142800061005E10101C06B456AC7EF11F0452AB6
:101438001200010E4FA6000E056E066A0650D8A4CB
:1014480012000550E5E0010A02E1C7EF11F01200B1
:101458000A0E0001AA6F0F6A0F506A0FD96EDA6A76
:10146800DF680F2A090E0F64F7D74D6A0001A969D2
:10147800A86BA76BA66B5A0EA56F2D0EA56F320E23
:10148800A56FA46B020EA36F1E0EA26FA16F0A0EAA
:101498004C6E5090A06B9F6B4E6A8B6B010E976FD2
:1014A800966B8E6B8F6B4F9C906B640E956F946FE1
:1014B800936F926F2D0E916F160E4A6E040E4B6E3F
:1014C8004B50050DF3CF96F0030E9A6F9D6F9C6BF2
:1014D8009B6B9E6B886B496A486A2DEC11F0896B8F
:1014E800476AAB6B090E746F070E756F060E766F41
:1014F800050E776F040E786F030E796F4F924F9831
:101508004F964F94436A446A4F901200ACA2FED79C
:10151800106A116A1AD01050AC0FD96EDA6A800EB0
:101528001024E16E010E1120E26EDFCFE7FF1050AC
:10153800AC0FD96EDA6A400E1024E16E010E11204C
:10154800E26EDFCFE7FF104A112A115009E1400E81
:10155800105C06E21050AC0FD96EDA6ADF50DBE19E
:10156800800E1024D96E010E1120DA6E0D0EDF6E7A
:10157800400E1024D96E010E1120DA6E0D0EDF6EAA
:10158800810E1024D96E010E1120DA6EDF6A410E29
:101598001024D96E010E1120DA6EDF6A466A446A99
:1015A8004F80400E4424D96EDA6A010EDA22DF50E9
:1015B800C96E800E4624D96EDA6A010EDA22DF502F
:1015C800AD6E9D8812001A0E0F6EF80EE82EFED72B
:1015D8000F2EFCD700F000F01A0E0F6EF80EE82E52
:1015E800FED70F2EFCD700F000F01A0E0F6EF80E83
:1015F800E82EFED70F2EFCD700F000F01A0E0F6E63
:10160800F80EE82EFED70F2EFCD700F000F01A0EC9
:101618000F6EF80EE82EFED70F2EFCD700F000F064
:101628001A0E0F6EF80EE82EFED70F2EFCD700F01C
:1016380000F01A0E0F6EF80EE82EFED70F2EFCD70C
:1016480000F000F01A0E0F6EF80EE82EFED70F2EDF
:10165800FCD700F000F01A0E0F6EF80EE82EFED739
:101668000F2EFCD700F000F01A0E0F6EF80EE82EC1
:10167800FED70F2EFCD700F000F012000201896F90
:10168800AFEC11F0BFEC11F088C2A1F00A0E000116
:10169800966F79EC0DF0CC6A9E928D94020E976F3E
:1016A80053EC0CF00201890503E18C9E8C8C02D06E
:1016B8008C9C8C8E040E776E766A040E6B6E8B8211
:1016C8000001856B010E846F8445E846FC0B776E3C
:1016D8008445E846030B766E826B836B4F9EA39816
:1016E8009D8C9D8CF28CF28ECFEC11F09E9C37EC89
:1016F80011F0C8EC0FF00201890504E1050E0001A4
:10170800A919F7E00201895104E1040E0001A919A1
:10171800F0E0A3989D9C8D94AFEC11F0F7EC10F0DD
:10172800010EEEEF0FF00201896FAFEC11F0BFEC84
:1017380011F088C24CF00A0E0001966F79EC0DF09A
:10174800CC6A9E928D84030E976F53EC0CF00201C5
:10175800895103E18C9E8C8C02D08C9C8C8E040E5B
:10176800776E766A040E6B6E8B820001856B010EB4
:10177800846F8445E846FC0B776E8445E846030B86
:10178800766E826B836B4F9EA3989D8C9D8CF28C9A
:10179800F28ECFEC11F09E9C4FEC11F0C6EC0EF0DF
:1017A8000201895104E1080E0001A919F7E00201BC
:1017B800890504E1090E0001A919F0E0A3989D9C90
:1017C8008D94AFEC11F0F7EC10F0010EEEEF0FF086
:1017D800146A10AE06D00F6C101ED8B0102A010E75
:1017E800146E12AE04D0116C121ED8B0122A115009
:1017F800121017E0010E136E04D0D890113612366D
:10180800132A12AEFAD711500F5C1250105804E385
:1018180011500F5E1250105AD89012321132132EF6
:10182800F2D7145004E00F6C101ED8B0102A0FC065
:101838000FF010C010F01200926892809282928489
:1018480092869288928A929C928EFA0E936E9390C8
:101858009382939493869388938A938C938EDC0EC9
:10186800946E94909492949494869488948A949C78
:10187800948E0F0E956E070E956E958095829584C1
:1018880095969598959A959C959E966E9680968233
:101898009694896A8A6A8B6A8C6A8D6A1200C29ADF
:1018A800C298C250F30B0409C26EC2903F0EC11613
:1018B800C198C16AC09EC050870B1009C06EC05045
:1018C800F80B0409C06EC050F80B0109C06E140E65
:1018D800C06EC050F80B0109C06E3F0E9A169A50A0
:1018E800E00B10099A6EE00E9A16100E9A6E9A6A1C
:1018F800996A030EB86EB96A9D8C9E9C9F9CC280A3
:101908004F9E1200A4900001A42BA351A41915E125
:101918004E0401E0A02BA66B9F5103E09F51A05DF0
:1019280002E24FAA1200000E8FEC11F00001AB6B1F
:10193800B5EC11F0000E66EF10F0A251A419D8A46E
:101948001200970508E180B406D04E0404E1060EA3
:1019580067EC11F004D0AB6B060E66EC10F0000ECD
:101968008FEC11F0B5EF11F0A4900001A42BA35156
:10197800A41915E14E0401E0A02BA66B9F5103E0CA
:101988009F51A05D02E24FAA1200000E96EC11F0E2
:101998000001AB6BBAEC11F0000E75EF10F0A2511C
:1019A800A419D8A41200970508E180B406D04E0403
:1019B80004E1060E6FEC11F004D0AB6B060E75EC6B
:1019C80010F0000E96EC11F0BAEF11F0C29AC2981E
:1019D800F30EC216C2903F0EC116C198C16AC09ECE
:1019E800C050870B1009C06EC050F80B0409C06EB8
:1019F800C050F80B0109C06E140EC06EC050F80B31
:101A08000109C06E3F0E9A169A50E00B10099A6EA3
:101A1800E00E9A16100E9A6E9A6A996A030EB86EBC
:101A2800B96A9D8C9E9C9F9CC2804F9E1200F29426
:101A38000001A62B9C2B8B2B020EA6191FE012006F
:101A48005FEC11F000019451955D03E295C096F0AA
:101A5800120094C096F0120057EC11F00001935157
:101A6800955DF4E393C096F0120057EC11F0000175
:101A78009251955DEBE392C096F012009751010ADE
:101A8800DFE0030AE9E0010AF0E01200F294000145
:101A9800A62B9C2B8B2B020EA6191FE012007FECA5
:101AA80011F000019451955D03E295C096F0120083
:101AB80094C096F0120077EC11F000019351955DF7
:101AC800F4E393C096F0120077EC11F00001925104
:101AD800955DEBE392C096F012009751010ADFE0A2
:101AE800030AE9E0010AF0E012007E9E040E796E16
:101AF800786A1F0E7B6E3F0E7B6E7B288C6F7F6B28
:101B08007E697A6A030E7F6E0F0E7F16F30E7F16BC
:101B18007F50FC0B02097F6E800E7E6E6F508F0B1C
:101B280010096F6E0F0E6F123F0E6F6E6E6A010E08
:101B38006E6E6D6A050E6B6E6A6A6E96706A0A0E34
:101B4800716E0A0C126E125002E1C3EF11F0010A15
:101B580002E1C9EF10F0030A02E1ECEF10F0010A0C
:101B680002E157EF10F0070A02E1BCEF10F0010A9A
:101B780002E11BEF0DF0030A02E1D2EF11F0010AB6
:101B880002E186EF0CF00F0A02E102EF07F0010A0A
:101B980002E1E5EF11F012009D9A9D98480EAA6E99
:101BA800AA86800EAB6E240EAC6EAC98AC84220E66
:101BB800AF6E110EAF6E120EAF6E100EAF6EB06A32
:101BC8000B0EAF6E330EB06ECD0EAF6EB06AAA9626
:101BD800AC94AC980C0EAF6EB06A466A456A9F9892
:101BE8009F9A4F969DEF11F0A49220D080B404D014
:101BF8008A6BEBEC11F011D0010E8A6F090EA86FF9
:101C0800BAEC11F00001A46BECC0A2F04E6A12000D
:101C180080B406D08A6B050EA86F010E96EF11F0FE
:101C2800010E8A6F000E96EC11F0EAD700018A5176
:101C3800EFE0010ADBE0120002EE00F0800EEE6A2F
:101C4800E806FDE101EE00F011EE00F0EE6AE55065
:101C5800E150FCE1E250FAE100EE60F08D0EEE6A30
:101C6800E806FDE1506A4F6A00EE43F00C0EEE6A9A
:101C7800E806FDE151905192000EF86E0001AAEFBE
:101C88000EF0146A156A115012101BE0010E136E43
:101C980004D0D89011361236132A12AEFAD7D8903B
:101CA8001436153611500F5C1250105805E31150B8
:101CB8000F5E1250105A1480D89012321132132E1F
:101CC800EED714C00FF015C010F01200D9CF03F0F2
:101CD800DACF04F09DB29EA203D0DBEC11F011D054
:101CE800F2B8F2A203D0CBEC11F00BD0F0B6F0A012
:101CF80003D0D5EC10F005D0F0B8F0A202D00DEC6E
:101D080011F004C0DAFF03C0D9FF51921100185036
:101D1800191017E0010E1A6E04D0D890183619362B
:101D28001A2A19AEFAD71850165C1950175804E336
:101D38001850165E1950175AD890193218321A2EA0
:101D4800F2D716C016F017C017F01200700ED36E37
:101D5800D3A4FED72CEC0AF020EC0CF0E2EC0EF049
:101D6800D0EC0DF014EC10F047EC10F037EC10F05C
:101D7800AFEC10F08CEC0FF093EC10F0DFEC05F00A
:101D880067EF00F082AA476A76EC0FF060EC0FF07C
:101D98004C500001A65D0EE2020EA665020C050E6F
:101DA8000F6E9851FCEC0EF00001FE6F4A50FE5D7C
:101DB800D8A01200AB6B000E66EF10F0F28EF28C1A
:101DC800F29AF298F296F294F292F290F18EF18CE5
:101DD800F19CF18AF188F194F190F08EF08CF098F2
:101DE800F096F092F090D08E26EC10F09F961200AC
:101DF800106E126A0F5014E0010E116E03D0D890C5
:101E08000F36112A0FAEFBD7D89012360F50105C40
:101E180003E30F50105E1280D8900F32112EF4D7C2
:101E2800125012000F6E0F50D8B4490C010AD8B4E2
:101E3800210C030AD8B4410C010AD8B4520C070A81
:101E4800D8B44C0C010AD8B4420C030AD8B4500CCC
:101E5800F90AD8B4480C200C176E17504DC015F06D
:101E6800166A155E000E165A090E15240F6E000E1E
:101E78001620106E126A0A0E116EECEC0BF00F5061
:101E88006A0FD96EDA6ADF50120082B802D00001F8
:101E9800896B76EC0FF060EC0FF00001A651A55DA0
:101EA80003E2030E67EC11F0B40E00019C65B40C5C
:101EB8009DC09EF09C6B12004FA4120001C180F2DD
:101EC80002C181F203C182F204C183F205C184F226
:101ED80006C185F207C186F20101005169EC00F0E4
:101EE8004F9412004FA61200C1C180F2C2C181F204
:101EF800C3C182F2C4C183F2C5C184F2C6C185F2EE
:101F0800C7C186F20101C05169EC00F04F9612007A
:101F1800B79EB78CB79A180EB712B784B792876A6C
:101F2800886A610E916EA80E906EB790876A886A6B
:101F3800A590A380A4901200E7EC0AF0E7EC0AF061
:101F4800E7EC0AF0E7EC0AF0E7EC0AF0E7EC0AF055
:101F5800E7EC0AF0E7EC0AF0E7EC0AF0E7EF0AF042
:101F6800462A800E4624D96EDA6A010EDA22DF503C
:101F780009E0800E4624D96EDA6A010EDA22DF50B3
:101F8800AD6E12009D98120076EC0FF060EC0FF029
:101F98000001A151A65D07E2020EA665020C91514F
:101FA800985DD8A01200AB6B000E66EF10F0A492FB
:101FB800A382A49250804FAA80B412001F0EEC6531
:101FC80003D0A26957EF10F0EC51080DF3CFA2F03F
:101FD80057EF10F00001FE6F88C0FFF08B6BE1EC4B
:101FE80010F002D076EC0FF00001FE518B5DFAE3A1
:101FF800FF51D8B4A9EC11F012000F501102F3CF21
:1020080013F0F4CF14F00F501202F35014261050AE
:102018001102F350142613C00FF014C010F0120070
:10202800958695849592C79EC79CC78CC69EC69C6C
:10203800C68AC688C698C650F00B0509C66E9E9615
:102048009D861200639C6350F00B0809636EA3928F
:10205800A592A492629C6250F00B0809626EA39448
:10206800A594A4941200D59ED59CD59AD598D596BA
:10207800070ED512D512D550F80B0409D56EF19478
:10208800F29AF2941200C26AC16A940EC06EC050ED
:10209800F80B0109C06EC00E9A6E996A030EB86EED
:1020A800B96AC2801200010E8FEC11F0A492A494B8
:1020B800A3A405D00A0E0001A86FE7EF11F0A384CE
:1020C800E7EF11F00F6E4D506A0FD96EDA6A0FC044
:1020D800DFFF0FC0A9F04D2A0A0E4D18D8B44D6A7B
:1020E8001200056E4D506A0FD96EDA6A05C0DFFF1F
:1020F80005C0A9F04D2A0A0E4D18D8B44D6A120031
:10210800016E4D506A0FD96EDA6A01C0DFFF01C057
:10211800A9F04D2A0A0E4D18D8B44D6A1200630E64
:102128007B6E7A6A7F6A800E7E6E3F0E6F6E6E6A75
:102138006D6A050E6B6E6A6A1200116E106A3A0EAD
:10214800116005D02F0E116402D0010E106E10C060
:102158000FF00F301200240ECA6ECA50870B4009C8
:10216800CA6EFC0ECA16C80ECB6E9F929F82C80C10
:10217800000E8FEC11F0A394A494B5EC11F00001BB
:10218800A46BECC0A2F04E6A1200F0900001892BFB
:102198008951D8A412008B848B908B92010E67EF23
:1021A80011F0F0900001892B8951D8A412008B847A
:1021B8008B908B92010E87EF11F0D76AD66AD5BE45
:1021C80004D0F28AF2948B8AD58E010E886F010CA6
:1021D8008B9201D000F0CC50FDE18B828B74F09291
:1021E8004728476E1200D5EC11F08D948B908B9296
:1021F8006B6A8C988C9A8C9C8C9E1200D8EC11F08F
:102208008D948B908B926B6A8C988C9A8C9C8C9EFC
:1022180012008B9201D000F0CC50FDE18B828B74C0
:10222800F0924728476E1200DEEC11F08D948B90E7
:102238008B926B6A8C988C9A8C9C8C9E1200106E78
:10224800116A03D0E7EC0AF0112A1050115CFAE386
:10225800120080B404D08A6B010E4E6E010C010E80
:102268008A6F4E6A1200A66BA06BA46BE1EC10F0AB
:10227800476A8B9412009C6BA66BA06BA46BE1EC75
:1022880010F0896B1200F288F29282B61200AB6BE2
:102298004D0E66EF10F0A66BA06BA46BE1EC10F08E
:1022A800F088476A12004804D8B41200010E486E3C
:1022B800F092F088010C4904D8B41200010E496E5E
:1022C800F090F086010C106E010E66EC10F010C054
:1022D800A8F0F7EF10F0066E010E75EC10F006C0CE
:1022E800A8F002EF11F04804D8B41200010E486EAD
:1022F800F092F088010C4904D8B41200010E496E1E
:10230800F090F086010C026E010E84EC10F002C011
:10231800A8F018EF11F00F6E0F0402E1898C12007B
:10232800899C1200056E050402E1898C1200899CC3
:102338001200AB889E9A9D8A9E989D8812004950EB
:10234800D8B41200496AF0961200D59EF29AF29417
:102358000001886B12004850D8B41200486AF098FF
:102368001200B790A490876A886A1200B790A49068
:10237800876A886A12005090A392A4921200F2927F
:10238800040E67EF11F08B848B948B841200F29209
:10239800040E87EF11F09D829E9212009E92C282D7
:1023A80012009D929E9212009D929E9212009E9201
:1023B800C28212009D929E921200A9EF11F0F2982B
:1023C8001200A4981200B7801200A4981200B780D7
:0223D8001200F1
:103EA4000001000A006400E803102701001000006C
:103EB400010010636F6E7369676E653D2564206948
:103EC4005F313D256420695F323D2564206475744B
:103ED400793D2564206572726575723D25642050B4
:103EE4006174696E6167655F4E625F457373616992
:103EF4003D256420436170746575725F4361706F22
:103F0400745F4E625F4576656E656D656E743D25C2
:103F1400640025303258202530325820253032585C
:103F24002025303258202530325820253032582070
:103F3400253032582025303258202530325820255B
:103F44003032582025303258202530315820253041
:103F540031582025303158202530325825303258F8
:103F6400202530325800636F6E7369676E653D2596
:103F74006420706174696E3D25642070696F6E3DC4
:103F8400256420706C6174696E653D2564207065DC
:103F94006C6C653D2564006E625F733D2564206E24
:103FA400625F50696F6E3D2564206E625F54696D77
:103FB40065725F353D256400457461743D25642058
:103FC4006E625F735F666F6E6374696F6E6E656D4C
:103FD400656E743D256400303132333435363738FC
:103FE4003941424344454600253032582530325841
:0B3FF400253032580025303158000005
:020000040020DA
:08000000FFFFFFFFFFFFFFFF00
:020000040030CA
:0E000000FFC8083E1C9981FF0FC00FE00F40A3
:00000001FF
