:0400000067EF00F0B6
:0600080051825CEF10F0D4
:100018005180D8CF08F0E8CF09F0E0CF0AF0E1CF5F
:100028000BF0E2CF0CF0D9CF0DF0DACF0EF0A3B27F
:10003800A4A203D0C7EC0FF036D0A3B4A4A402D076
:10004800A49431D09DB69EA603D04DEC09F02BD0D8
:100058009DB89EA803D08DEC11F025D09DBA9EAA1C
:100068000BD04FB803D03FEC0AF01DD0AECF45F00F
:10007800456A9E9A4F9817D0F2BAF2A403D049EC79
:100088000FF011D0A3B0A4A003D0EDEC0DF00BD06D
:10009800A3B8A4A803D0C1EC13F005D09DBC9EACB6
:1000A80002D0DDEC07F00EC0DAFF0DC0D9FF0CC09E
:1000B800E2FF0BC0E1FF0AC0E0FF09C0E8FF08C08B
:1000C800D8FF51901000EFEF0FF0406E91D380C22F
:1000D800FAF0D00E0001FA27FA47FA478B50FA19BE
:1000E800FB0BFA198B6E1200AD0E1B6EB90E1C6E4F
:1000F8003F0E1D6E9BC01EF01F6A6CEC04F0AD0E27
:100108000F6EC1EF0BF0AD0E1B6EB70E1C6E3E0EE0
:100118001D6E98C01EF01F6A9BC020F0216A9AC00D
:1001280022F0236A86C024F087C025F084C026F018
:1001380085C027F09DC028F0296A9FC02AF02B6A45
:100148006CEC04F0DCD7AD0E1B6EEC0E1C6E3F0E93
:100158001D6E000E20EC11F01E6E1F6A010E20ECC1
:1001680011F0206E216AA9C022F0236A6CEC04F019
:10017800C6D7416A426A4150B608D96EDA6A4C500D
:1001880041240F6E000E4220106E126A0A0E116E84
:1001980025EC0EF00F506A0FE16EE26AE75006ECAC
:1001A80011F0DF6E414A422A42BEE5D7425003E1D0
:1001B8000A0E415CE0E30001B76BA1D7AD0E1B6EE0
:1001C8009B0E1C6E3F0E1D6E4BC01EF01F6AA1C019
:1001D80020F0216AA6C022F0236A6CEC04F08FD7C5
:1001E80002018051050DF3CF98F01200AD0E1B6E81
:1001F800F90E1C6E3F0E1D6EACC01EF01F6A6CEC33
:1002080004F07DD7AD0E1B6EB90E1C6E3F0E1D6E31
:1002180002018051D00F20EC11F01E6E1F6A6CECA9
:1002280004F06DD7020180513EEF12F002018251B5
:100238000A0DF3CFFAF08151640DF3500001FA254D
:1002480002018325300F0001936F120002018251D1
:100258000A0DF3CFFAF08151640DF3500001FA252D
:1002680002018325300F0001926F1200D00E0001A9
:10027800FA6FFB69020180510001FC6FFD6BFA51B6
:10028800FC27FB51FD23FD51D8A41200FC51010AA3
:10029800D8B41200030ACAE0010AD8E01200020129
:1002A80082510A0DF3CFFAF08151640DF350000129
:1002B800FA2502018325300F496E49C098F098C08D
:1002C80097F0D6D0020182510A0DF3CFFAF081518E
:1002D800640DF3500001FA2502018325300F000157
:1002E800A76FC6D0020182510A0DF3CFFAF08151EF
:1002F800640DF3500001FA2502018325300F000137
:10030800A56FB6D0020182510A0DF3CFFAF08151E0
:10031800640DF3500001FA2502018325300F000116
:10032800A46FA4C04EF0A4D0020182510A0DF3CFED
:10033800FAF08151640DF3500001FA25020183257A
:10034800300F0001A36F94D002018151D00F4A6E83
:100358004AC09FF08DD002018151D00F00019D6FDE
:100368009CC09DF085D0020182510A0DF3CFFAF0AE
:100378008151640DF3500001FA2502018325300FE5
:10038800496E49C096F074D0020182510A0DF3CF2C
:10039800FAF08151640DF3500001FA25020183251A
:1003A800300F496E49C095F063D0020182510A0DA1
:1003B800F3CFFAF08151640DF3500001FA250201E0
:1003C8008325300F496E49C094F052D0D00E0001F9
:1003D800FA6FFB69020180510001FC6FFD6BFA5155
:1003E800FC27FB51FD23FD5143E1FC5101E157D7A7
:1003F800010A01E167D7030A01E174D7010A82E023
:10040800070A92E0010AA0E0030AA5E0010AABE0AE
:100418000F0ABAE0010AC9E02BD0AD0E1B6E6A0EB6
:100428001C6E3F0E1D6E98C01EF01F6AA7C020F0FC
:10043800216AA5C022F0236AA4C024F0256AA3C0BB
:1004480026F0276A6CEC04F05AD6AD0E1B6EBC0E73
:100458001C6E3F0E1D6EAAC01EF01F6A4BC020F016
:10046800216A6CEC04F04BD681C2ADF0AE6B47D676
:10047800D00E0001FA6FFB69020180510001FC6F88
:10048800FD6BFA51FC27FB51FD23FD51D8A4120046
:10049800FC51C3E0010AD9E0080AD8A41200E4D745
:1004A800080E4EEF13F0AD0E1B6EB90E1C6E3F0E0C
:1004B8001D6EABC01EF01F6A6CEC04F020D6AD0EAA
:1004C8001B6E160E1C6E3F0E1D6E000E20EC11F0FA
:1004D8001E6E1F6A010E20EC11F0206E216AA9C061
:1004E80022F0236AA1C024F0256A9BC026F0276A5F
:1004F8009AC028F0296A98C02AF02B6AA7C02CF065
:100508002D6AA5C02EF02F6AA4C030F0316AA3C0AE
:1005180032F0336A010E80A4000E346E356A010E83
:1005280082A6000E366E376A010E8DA4000E386E54
:10053800396AB0CF3AF03B6AAFCF3CF03D6AABC006
:100548003EF03F6A6CEC04F0DAD5070E4EEF13F07C
:10055800000E3EEC12F00001AC6B120082A6DBD05C
:1005680002018051D00F00018F6F02018151D00F1D
:100578000001916F020183510A0DF3CFFAF0825105
:10058800640DF3500001FA2502018425300F0001A3
:10059800906F08D04F8C04D04F9C4F8A17D04F9C37
:1005A8004F9A14D0D00EFA6FFB69020185510001F1
:1005B800FC6FFD6BFA51FC27FB51FD23FD51EFE168
:1005C800FC51010AE7E0030AE7E0E9D7310E02012E
:1005D800851902E14F8C01D04F9C4AC09FF09CC006
:1005E8009DF0010E0001AC6F18D0AA5101E1B7D0FF
:1005F800020EAA19D8B41200ECEC12F079EC11F042
:10060800AED0AA5101E1AFD0030EAA19D8B4120096
:10061800ECEC12F079EC11F0A6D08F51F2E0010A5F
:10062800D8A41200E2D782A676D002018051D00F5A
:1006380000018F6F02018151D00F0001916F0201FB
:1006480083510A0DF3CFFAF08251640DF350000183
:10065800FA2502018425300F0001906F010EAC6F5E
:1006680018D0AA5101E188D0050EAA19D8B41200F1
:10067800ECEC12F079EC11F07FD0AA5101E17FD0B7
:10068800040EAA19D8B41200ECEC12F079EC11F0AF
:1006980076D08F51F2E0010AD8A41200E2D782A6E0
:1006A8003AD002018051D00F00018F6F02018151B1
:1006B800D00F0001916F020183510A0DF3CFFAF0B8
:1006C8008251640DF3500001FA2502018425300F90
:1006D8000001906F010EAC6F18D0AA5101E158D0FB
:1006E800090EAA19D8B41200ECEC12F079EC11F04A
:1006F8004FD0AA5101E14FD0080EAA19D8B4120060
:10070800ECEC12F079EC11F046D08F51F2E0010ACE
:10071800D8A41200E2D7040E4EEF13F00201805164
:10072800D00F0001996F02018151D00F00018F6F26
:10073800020183510A0DF3CFFAF08251640DF35090
:100748000001FA2502018425300F0001A06F2CD08A
:10075800A96B4AC09FF09CC09DF008D0AA51020E18
:100768003EEF12F0AA51030E3EEF12F08F51FAE05D
:10077800010AD8A41200F2D7050E3EEF12F0040EBB
:100788003EEF12F08F51FBE0010AD8A41200F4D713
:10079800090E3EEF12F0080E3EEF12F08F51FBE00B
:1007A800010AD8A41200F4D79951010AD1E0030A2A
:1007B800E9E0010AD8A41200F1D7020180B102D001
:1007C8008D9401D08D841200000E3EEC12F0C3D639
:1007D80080C24BF012000201805175EF0FF0000E3D
:1007E8003EEF12F00D0E02014019D8A48B841200BE
:1007F8004050300AF4E0010AD8B41200030AD8B411
:100808001200010AD8B41200070AD8B41200010A6B
:10081800D8B41200030AD8B41200010AD8B41200DE
:10082800760A02E1ECEF12F0030A01E138D7060A72
:10083800D8B41200010A01E1E5D4030AD8B41200C1
:100848000E0A01E185D6010AC6E0050A01E13FD496
:10085800010A01E163D71D0A01E1B8D5020AADE03A
:10086800010A01E12CD6070A01E11AD6010AD8B417
:100878001200030A01E1FCD5010A01E166D60F0A5C
:1008880001E16CD6020A01E1CED6380A01E1AED404
:10089800010A01E1A5D4060A01E1C4D4030A98E0DB
:1008A8000F0A01E121D4050A01E163D4010A01E13B
:1008B800DDD41D0A01E127D4010A01E17FD4030A2E
:1008C80083E0010A01E13FD4050A01E1ECD58AD7AA
:1008D8001E0E0001F26F5ED1250EF91907E01B50BC
:1008E800D96EDA6AF9C0DFFF1B2A54D1F76BF86BAF
:1008F800F66B03D0F6851C4A1D2A1CC0F6FF1DC0E6
:10090800F7FF0800F550300AF5E01CC0F6FF1DC0DF
:10091800F7FF0800F55079EC12F032E30001F76BAD
:10092800F86BF7C00FF0F8C010F0126A0A0E116EDB
:10093800C7EC11F00FC0F7F010C0F8F0D00E0001AE
:10094800ED6FEE691CC0F6FF1DC0F7FF0800F550FB
:10095800EF6FF06BED51EF27EE51F023EF51F727D2
:10096800F051F8231C4A1D2A1CC0F6FF1DC0F7FFD2
:100978000800F55079EC12F003E3D3D7F68F16D0C0
:100988001CC0F6FF1DC0F7FF1C4A1D2A0800F5CF42
:10099800F9F00001F95101E109D1580AEFE03C0AE8
:1009A80005E00D0A03E0110AE9E0F4D0F6BF12D021
:1009B800F251D96EDA6ADECFF4F0DDCFF5F0020E2F
:1009C800F227F5AF3DD0030EF613F46DF51FD8B03E
:1009D800F52B36D0F251D96EDA6ADECFF4F0DDCFDE
:1009E800F5F0020EF2272CD0010EF96FF951020D25
:1009F800A50EF324F66E3E0EF420F76E0900F550AE
:100A0800F45D0900F550F55920E3F92B050EF919A5
:100A18001CE0ECD7010EF96FF951020DAF0EF3246B
:100A2800F66E3E0EF420F76E0900F550F45D0900ED
:100A3800F550F5590AE3F92B040EF91906E0ECD73D
:100A4800F651800BD1E0800AE5E0F751F81108E093
:100A5800F6C0EDF0030EED1703E0F707D8A0F8078E
:100A6800800EF9BF7F0EED6FF751F95DF851800ADE
:100A7800ED5907E2F951F75F000EF9BFFF0EF85B79
:100A880002D0F76BF86BF6A518D0F6C0EDF0030EA0
:100A9800ED1706E01B50D96EDA6A2D0EDF6E1B2AA1
:100AA800F751F81124E01B50D96EDA6A300EDF6E68
:100AB8001B2AF707D8A0F807F3D7F751F8110CE06D
:100AC8001B50D96EDA6A200EDF6E1B2AF707D8A0F2
:100AD800F807F751F811F4E1F6C0EDF0030EED1741
:100AE80006E01B50D96EDA6A2D0EDF6E1B2AF9C09C
:100AF800F3F04DD0F351020DA50EF324F66E3E0E21
:100B0800F420F76E0900F5CF11F00A00F5CF12F0C6
:100B1800F4C00FF0F5C010F014EC10F00FC016F090
:100B280010C017F0196A0A0E186E7DEC10F01650F6
:100B3800300FF96F26D0F4C00FF0F5C010F0F35164
:100B4800020DAF0EF324F66E3E0EF420F76E090088
:100B5800F5CF11F00A00F5CF12F014EC10F00F5099
:100B68000F0BF16FDB0EF125F66EF76A3F0EF722D9
:100B78000800F5CFF9F005D0F651800BBBE0800AEC
:100B8800DAE01B50D96EDA6AF9C0DFFF1B2AF307D7
:100B9800F329F2E11CC0F6FF1DC0F7FF1C4A1D2A0D
:100BA8000800F5CFF9F0F95101E096D61B50D96E3F
:100BB800DA6ADF6A000C4FEC11F039EC11F081B8F9
:100BC8001FD10DD1010EB4EC11F04FBC1CD0010E99
:100BD800FE6F620EFF6F000EB0EC08F000019D077B
:100BE8009D5108E04B6A030EB4EC11F0020E3EEC86
:100BF80012F0E1D7020E3EEC12F00001AC6B070ECA
:100C08003EEC12F0D8D7000E3EEC12F00001AC6BAF
:100C1800D2D7010EB4EC11F0010EFE6F620EFF6F19
:100C2800010EB0EC08F000019D079D5108E04B6AE9
:100C3800030EB4EC11F0030E3EEC12F0BCD7030E19
:100C48003EEC12F00001AC6B070E3EEC12F0B3D78D
:100C58000001AC6B460E3EEC12F0ADD7010E20EC55
:100C680011F0020AAFE0010AD4E0F2D7010EB4ECA9
:100C780011F0010EFE6F620EFF6F000EB0EC08F06F
:100C880000019F079F5108E09E6B030EB4EC11F022
:100C9800020E3EEC12F08FD7020E3EEC12F000016D
:100CA800AC6B070E3EEC12F086D7010EB4EC11F0D7
:100CB800010EFE6F620EFF6F010EB0EC08F000012E
:100CC8009F079F5108E09E6B030EB4EC11F0030ED2
:100CD8003EEC12F070D7030E3EEC12F00001AC6B44
:100CE8004D0E3EEC12F067D70001AC6B460E3EECA1
:100CF80012F061D7010E20EC11F0020AB7E0010AE8
:100D0800D4E0F2D7010EAC6F4D0E3EEC12F00201AA
:100D18008A6B010E6DEC13F0040ED8EC12F0000E85
:100D28006DEC13F0020ED8EC12F002018A2B030EC0
:100D38008A65EFD740D7010EAC6F4D0E3EEC12F02E
:100D480002018A6B010E6DEC13F0040ED8EC12F060
:100D5800000E6DEC13F0020ED8EC12F002018A2B93
:100D6800030E8A65EFD727D7A951010ACBE0030AFA
:100D7800E2E0010A01E172D7070ABCE01CD791C082
:100D8800FEF090C0FFF08F51B0EC08F014D791C07E
:100D9800FEF090C0FFF08F51B0EC08F00CD791C076
:100DA80087F290C088F28F5179EC0CF004D791C08B
:100DB80087F290C088F28F5179EC0CF0FCD691C084
:100DC80087F290C088F28F51CEEC0CF0F4D691C027
:100DD80087F290C088F28F51CEEC0CF0ECD600016F
:100DE800AA51010AC1E0030ACAE0010AD0E0070AD1
:100DF800DEE0010AD4E00D0AEAE0010AE0E0DBD611
:100E0800ECEC12F0070E4EEC13F0D5D6C7D0C4CFD9
:100E18009BF04F8E9E9C9B51985D846F856BD8A0EC
:100E2800850785BF08D0855103E10A0E845D03E379
:100E3800864B872B06D085AF04D0845186278551F1
:100E480087237B500F6E106A86510F5C1050800A02
:100E5800116E8751800A115803E27BCF86F003D0C8
:100E680087AF02D0866B876B8645E846FC0B796EA8
:100E780086C00FF087C010F0D8900F361036D89083
:100E88000F36103610C00FF0106A0FBE10680F50E2
:100E9800786E1200C4CF9AF04F8E9E9C9A51985D3E
:100EA800846F856BD8A0850785BF08D0855103E17D
:100EB8000A0E845D03E3864B872B05D085AF03D0EC
:100EC8008607D8A087077B500F6E106A86510F5C83
:100ED8001050800A116E8751800A115803E27BCFA7
:100EE80086F003D087AF02D0866B876B8645E846CD
:100EF800FC0B776E86C00FF087C010F0D8900F36C5
:100F08001036D8900F36103610C00FF0106A0FBE8A
:100F180010680F50766E1200C4CF9AF04F8E9E9CC8
:100F28009A51985D846F856BD8A0850785BF08D0D6
:100F3800855103E10A0E845D03E3864B872B05D0B8
:100F480085AF03D08607D8A087077B500F6E106A3D
:100F580086510F5C1050800A116E8751800A115813
:100F680003E27BCF86F003D087AF02D0866B876B16
:100F78008645E846FC0B776E86C00FF087C010F0F8
:100F8800D8900F361036D8900F36103610C00FF0A4
:100F9800106A0FBE10680F50766E1200000199514A
:100FA800010A01E134D7030A01E174D7010AB4E068
:100FB8001200C7D0C4CF9BF04F8E9E9C9B51985D6A
:100FC800846F856BD8A0850785BF08D0855103E15C
:100FD8000A0E845D03E3864B872B06D085AF04D0C9
:100FE80084518627855187237B50056E066A865172
:100FF800055C0650800A076E8751800A075803E28D
:101008007BCF86F003D087AF02D0866B876B86458F
:10101800E846FC0B796E86C005F087C006F0D890CC
:1010280005360636D8900536063606C005F0066A37
:1010380005BE06680550786E1200C4CF9AF04F8E30
:101048009E9C9A51985D846F856BD8A0850785BF53
:1010580008D0855103E10A0E845D03E3864B872B94
:1010680005D085AF03D08607D8A087077B50056ECB
:10107800066A8651055C0650800A076E8751800A09
:10108800075803E27BCF86F003D087AF02D0866B88
:10109800876B8645E846FC0B776E86C005F087C0EF
:1010A80006F0D89005360636D8900536063606C0BE
:1010B80005F0066A05BE06680550766E1200C4CFB4
:1010C8009AF04F8E9E9C9A51985D846F856BD8A03C
:1010D800850785BF08D0855103E10A0E845D03E3C7
:1010E800864B872B05D085AF03D08607D8A0870706
:1010F8007B50056E066A8651055C0650800A076EAD
:101108008751800A075803E27BCF86F003D087AF68
:1011180002D0866B876B8645E846FC0B776E86C0E7
:1011280005F087C006F0D89005360636D890053603
:10113800063606C005F0066A05BE06680550766ED6
:10114800120000019951010A01E134D7030A01E1B3
:1011580074D7010AB4E012000201876F0A0E000179
:10116800986F81EC13F0F0EC0EF0CC6A9E92FFA31E
:101178003EEC13F0010E0001996FBFEC0EF0020176
:10118800870503E18C9A8C8802D08C988C8A040E8F
:10119800796E786A010E6B6E8B800001856B846FA7
:1011A8008445E846FC0B796E8445E846030B786E67
:1011B800826B836B4F9EA3989D8CF28CF28EA7EC6A
:1011C80013F09E9C36EC13F05AD0020EA06FFF3934
:1011D8000F0BA86FFFA503D0D890A835A8274FAA52
:1011E80016D04FEC11F039EC11F081A805D0ECECD9
:1011F80012F0070E4EEC13F0020E0001AA1903E0DC
:10120800030EAA190EE1A8514B5C0BE2EAD74FEC8A
:1012180011F039EC11F081B804D00001A8514B5CF1
:10122800F6E3B9EC13F0BBEC13F0020EAA1903E0D5
:10123800030EAA1928E1000E3EEC12F00001AC6B77
:1012480022D0FFC0A0F0A16BE2EC12F0A1EC11F0EB
:1012580023EC0DF00201870504E1020E0001AA1932
:10126800F7E00201875104E1030E0001AA19F0E03A
:1012780097EC13F0B9EC13F0BBEC13F004D0FE516B
:10128800E0E0010AA2E0A3989D9C81EC13F0ECEF4A
:1012980012F09E96C9CF07F075D00D0E071812E010
:1012A800442A400E4424D96EDA6A010EDA22DF504D
:1012B80009E0400E4424D96EDA6A010EDA22DF50C2
:1012C800C96E12004F901200000E4324D96EDA6ADC
:1012D800020EDA2207C0DFFF000E4324D96EDA6A55
:1012E800020EDA22DF50010ED8A4000E056E000EA1
:1012F8004324D96EDA6A020EDA220D0EDE18010EC8
:10130800D8A4000E0510E8A031D0435015E0076AB4
:101318000FD0000E0724D96EDA6A020EDA22000E08
:101328000724E16EE26A010EE222DFCFE7FF072A17
:101338004350075CEEE34F84000E4324D96EDA6A0B
:10134800010EDA22000EDF6A436A12004350056E6E
:10135800066A052A000E0622400E0518061004E14A
:101368000101006B436A1200432A1200010E4FA4C8
:10137800000E056E066A0650D8A412000550E6E075
:10138800010A1200010E4FA0000E056E066A0650F3
:10139800D8A41200055098E0010A01E17ED7120096
:1013A8001DC021F0226A236A1C34213601E3228001
:1013B8002150246E245004E11B6A1C6A1D6A120025
:1013C80020C021F0226A236A1F34213601E32280DB
:1013D8002150256E255004E11B6A1C6A1D6A120003
:1013E80025507B0F24261DC025F02050251A800E7D
:1013F80025161C8E1F8E206A1D6A1B501E02F4CFF4
:10140800F3FFF46AF3CF26F0F4CF27F0286A1B50D5
:101418001F02F3502626F4502722000E28221C50C3
:101428001E02F3502626F4502722000E28221C50B4
:101438001F02F3502726F450282228AE05D0D89052
:10144800283227322632242AD890283227322632C8
:1014580026C00FF027C010F028C011F024C012F0E9
:1014680025C013F070EC0DF00FC01BF010C01CF07D
:1014780011C01DF012009E9AABA204D0AB9EAB8E99
:10148800AB98AB88400E4524D96EDA6A020EDA2290
:10149800AECFDFFF400E4524D96EDA6A020EDA229B
:1014A800DF50010ED8A4000E056E400E4524D96EFB
:1014B800DA6A020EDA220D0EDE18010ED8A4000E2A
:1014C8000510E8A032D0455015E0076A0FD0400E4D
:1014D8000724D96EDA6A020EDA22C00E0724E16EFA
:1014E800E26A010EE222DFCFE7FF072A4550075CD8
:1014F800EEE34F86C00E4524D96EDA6A010EDA2271
:10150800000EDF6A456A12004550056E066A052A14
:10151800000E0622400E0518061005E10101C06BF9
:10152800456A9FEF13F0452A1200010E4FA6000EE0
:10153800056E066A0650D8A412000550E5E0010AB7
:1015480002E19FEF13F012000C0E0001AB6F0F6A5F
:101558000F506A0FD96EDA6ADF680F2A090E0F6416
:10156800F7D74C6A0001AA69A96BA86B4B6A5A0E97
:10157800A76F2D0EA76F320EA76FA66B020EA56F71
:101588001E0EA46FA36F0A0EA26F5090A16BA06BE2
:101598004D6A8C6B010E996F986B8F6B906B4F9C9B
:1015A800916B640E976F966F956F946F2D0E936F76
:1015B800160E926F040E496E4950050DF3CF98F040
:1015C800030E9C6F4A6E9E6B9D6B9F6B886B8B6B3B
:1015D8008A6BE2EC12F0486A476AAC6B090E746FCA
:1015E800070E756F060E766F050E776F040E786F0F
:1015F800030E796F4F924F984F964F94436A446AFF
:101608004F9012003AC03CF03D6A3E6A39343C368D
:1016180001E33D803C500001F26FF25105E1386A68
:10162800396A3A6A3B6A1200170E3C6E38C03DF0C0
:1016380039C03EF03AC03FF03C28406E04D0D89004
:101648003F323E323D32402EFAD73D500001ED6F19
:10165800398E3A6A3850EE6F3950EF6F3A50F06F62
:10166800F16B8E0EF25FF2AF0CD0F251800A8F0F41
:10167800D6E3D890F133F033EF33EE33F23FF9D7B6
:101688000CD0170EF26507D0CAD7D890EE37EF37CF
:10169800F037F137F207F251F8E1ED5108E0F11FA8
:1016A800F01FEF1FEE6D000EEF23F023F123EEC0C5
:1016B80038F0EFC039F0F0C03AF0F1C03BF012005A
:1016C8002BC02FF0306A316A2A342F3601E330807C
:1016D8002F50366E365004E1296A2A6A2B6A1200A6
:1016E8002EC02FF0306A316A2D342F3601E3308056
:1016F8002F50376E375004E1296A2A6A2B6A120084
:10170800336A346A356A3750890F365E2BC037F032
:101718002E50371A800E37162A8E2B6A2D8E2E6A77
:10172800180E326ED8903336343635362C50295C44
:101738002D502A582E502B5807E32C50295E2D5037
:101748002A5A2E502B5A3380D89029362A362B36CF
:10175800322EE8D733C00FF034C010F035C011F086
:1017680036C012F037C013F070EC0DF00FC029F03E
:1017780010C02AF011C02BF01200ACA2FED7106ADC
:10178800116A1AD01050AD0FD96EDA6A800E102483
:10179800E16E010E1120E26EDFCFE7FF1050AD0FB2
:1017A800D96EDA6A400E1024E16E010E1120E26E45
:1017B800DFCFE7FF104A112A115009E1400E105CF3
:1017C80006E21050AD0FD96EDA6ADF50DBE1800E09
:1017D8001024D96E010E1120DA6E0D0EDF6E400E48
:1017E8001024D96E010E1120DA6E0D0EDF6E810EF7
:1017F8001024D96E010E1120DA6EDF6A410E102412
:10180800D96E010E1120DA6EDF6A466A446A4F808B
:10181800400E4424D96EDA6A010EDA22DF50C96E0E
:10182800800E4624D96EDA6A010EDA22DF50AD6ED8
:101838009D8812001A0E0F6EF80EE82EFED70F2E96
:10184800FCD700F000F01A0E0F6EF80EE82EFED747
:101858000F2EFCD700F000F01A0E0F6EF80EE82ECF
:10186800FED70F2EFCD700F000F01A0E0F6EF80E00
:10187800E82EFED70F2EFCD700F000F01A0E0F6EE0
:10188800F80EE82EFED70F2EFCD700F000F01A0E47
:101898000F6EF80EE82EFED70F2EFCD700F000F0E2
:1018A8001A0E0F6EF80EE82EFED70F2EFCD700F09A
:1018B80000F01A0E0F6EF80EE82EFED70F2EFCD78A
:1018C80000F000F01A0E0F6EF80EE82EFED70F2E5D
:1018D800FCD700F000F01A0E0F6EF80EE82EFED7B7
:1018E8000F2EFCD700F000F012000201896F66ECA1
:1018F80013F097EC13F088C2A3F00A0E0001986F5A
:10190800F0EC0EF0CC6A9E928D94020E996F8CECDE
:101918000EF00201890503E18C9E8C8C02D08C9C10
:101928008C8E040E776E766A040E6B6E8B820001C5
:10193800856B010E846F8445E846FC0B776E844501
:10194800E846030B766E826B836B4F9EA3989D8C43
:101958009D8CF28CF28EA7EC13F09E9C2EEC13F06B
:10196800D2EC10F00201890504E1050E0001AA1964
:10197800F7E00201895104E1040E0001AA19F0E020
:10198800A3989D9C8D9466EC13F0ECEC12F0010E7C
:10199800B4EF11F00201896F66EC13F097EC13F0C5
:1019A80088C2A2F00A0E0001986FF0EC0EF0CC6A23
:1019B8009E928D84030E996F8CEC0EF00201895172
:1019C80003E18C9E8C8C02D08C9C8C8E040E776EDE
:1019D800766A040E6B6E8B820001856B010E846F34
:1019E8008445E846FC0B776E8445E846030B766E23
:1019F800826B836B4F9EA3989D8C9D8CF28CF28E8C
:101A0800A7EC13F09E9C46EC13F039EC10F00201A1
:101A1800895104E1080E0001AA19F7E002018905BD
:101A280004E1090E0001AA19F0E0A3989D9C8D9489
:101A380066EC13F0ECEC12F0010EB4EF11F081B883
:101A480046D082A8486A4FEC11F039EC11F04B509F
:101A58000001A75D34E24D042FE14FAC2DD02C6A74
:101A6800200E2D6E410E2E6ECD0E1E6E0C0E1F6EAC
:101A7800410E206E4E50ECEC11F017C01BF018C050
:101A88001CF019C01DF0D4EC09F01BC029F01CC0D3
:101A98002AF01DC02BF064EC0BF029C038F02AC0E6
:101AA80039F02BC03AF006EC0BF04B50385C07E2EB
:101AB8000B0E4EEC13F003D0030E4EEC13F0B40EE5
:101AC80000019E65B40C4AC09FF09E6B1200ECECBE
:101AD80012F0070E4EEF13F0125004E00F501010E2
:101AE800111009E10F6A106A116A1200122AD890BF
:101AF800113210320F32146A156AFE0E1114166E66
:101B08001450151016100AE0F1D7122A0F2A000EE9
:101B180010221122D890113210320F32146A156A2D
:101B28001150166E14501510161006E0EED7120656
:101B3800D8900F361036113610BE03D0020E126040
:101B4800F6D712A0109ED8901232125011121350CC
:101B580001E0118E0FC00FF010C010F011C011F08D
:101B68001200A4900001A62BA551A61915E14D0459
:101B780001E0A12B4B6AA05103E0A051A15D02E254
:101B88004FAA1200000E6DEC13F00001AC6B8DEC47
:101B980013F0000E3EEF12F0A451A619D8A41200BB
:101BA80099050EE180B40CD04D040AE14FAC04D085
:101BB8000B0E4EEC13F008D0060E4EEC13F004D0CA
:101BC800AC6B060E3EEC12F0000E6DEC13F08DEFD0
:101BD80013F0A4900001A62BA551A61915E14D04F8
:101BE80001E0A12B4B6AA05103E0A051A15D02E2E4
:101BF8004FAA1200000E74EC13F00001AC6B92ECCB
:101C080013F0000E4DEF12F0A451A619D8A412003B
:101C180099050EE180B40CD04D040AE14FAC04D014
:101C28000B0E56EC13F008D0060E56EC13F004D049
:101C3800AC6B060E4DEC12F0000E74EC13F092EF44
:101C480013F0146A10AE06D00F6C101ED8B0102A0C
:101C5800010E146E12AE04D0116C121ED8B0122AE6
:101C68001150121017E0010E136E04D0D8901136DF
:101C78001236132A12AEFAD711500F5C12501058B0
:101C880004E311500F5E1250105AD89012321132DC
:101C9800132EF2D7145004E00F6C101ED8B0102A7F
:101CA8000FC00FF010C010F012009268928092825C
:101CB800928492869288928A929C928EFA0E936E61
:101CC80093909382939493869388938A938C938E1C
:101CD800DC0E946E94909492949494869488948A4A
:101CE800949C948E0F0E956E070E956E9580958236
:101CF800958495969598959A959C959E966E9680BE
:101D080096829694896A8A6A8B6A8C6A8D6A1200AE
:101D1800C29AC298C250F30B0409C26EC2903F0E19
:101D2800C116C198C16AC09EC050870B1009C06E09
:101D3800C050F80B0409C06EC050F80B0109C06E02
:101D4800140EC06EC050F80B0109C06E3F0E9A16F3
:101D58009A50E00B10099A6EE00E9A16100E9A6EC1
:101D68009A6A996A030EB86EB96A9D8C9E9C9F9C6C
:101D7800C2804F9E1200C29AC298F30EC216C29039
:101D88003F0EC116C198C16AC09EC050870B10098A
:101D9800C06EC050F80B0409C06EC050F80B0109A2
:101DA800C06E140EC06EC050F80B0109C06E3F0E15
:101DB8009A169A50E00B10099A6EE00E9A16100EB9
:101DC8009A6E9A6A996A030EB86EB96A9D8C9E9C3F
:101DD8009F9CC2804F9E12007E9E040E796E786A88
:101DE8001F0E7B6E3F0E7B6E7B288D6F7F6B7E692F
:101DF8007A6A030E7F6E0F0E7F16F30E7F167F50E2
:101E0800FC0B02097F6E800E7E6E6F508F0B1009DF
:101E18006F6E0F0E6F123F0E6F6E6E6A010E6E6E52
:101E28006D6A050E6B6E6A6A6E96706A0A0E716E3E
:101E38000A0CF2944B2A00019E2B8C2B020E4B1895
:101E48001CE0120013EC13F09651975D03E297C063
:101E580098F0120096C098F012000AEC13F0955111
:101E6800975DF5E395C098F012000AEC13F09451D1
:101E7800975DEDE394C098F012009951010AE2E0F1
:101E8800030AEBE0010AF1E01200F2944B2A000188
:101E98009E2B8C2B020E4B181CE0120025EC13F025
:101EA8009651975D03E297C098F0120096C098F09B
:101EB80012001CEC13F09551975DF5E395C098F06E
:101EC80012001CEC13F09451975DEDE394C098F068
:101ED80012009951010AE2E0030AEBE0010AF1E07D
:101EE8001200126E125002E19BEF13F0010A02E198
:101EF800B7EF12F0030A02E1ACEF12F0010A02E1B7
:101F08002FEF12F0070A02E194EF12F0010A02E142
:101F18001DEF0FF0030A02E1AAEF13F0010A02E134
:101F2800B5EF0DF00F0A02E10AEF07F0010A02E12E
:101F3800BDEF13F012009D9A9D98480EAA6EAA86CE
:101F4800800EAB6E240EAC6EAC98AC84220EAF6ED5
:101F5800110EAF6E120EAF6E100EAF6EB06A0B0E92
:101F6800AF6E330EB06ECD0EAF6EB06AAA96AC945B
:101F7800AC980C0EAF6EB06A466A456A9F989F9AF5
:101F88004F967BEF13F0A49220D080B404D0896BD5
:101F9800C3EC13F011D0010E896F090EA96F92ECF2
:101FA80013F00001A66B4EC0A4F04D6A120080B475
:101FB80006D0896B050EA96F010E74EF13F0010EA0
:101FC800896F000E74EC13F0EAD700018951EFE035
:101FD800010ADBE0120002EE00F0800EEE6AE8066D
:101FE800FDE101EE00F011EE00F0EE6AE550E1507F
:101FF800FCE1E250FAE100EE60F08D0EEE6AE806D0
:10200800FDE1506A4F6A00EE43F00C0EEE6AE806F6
:10201800FDE151905192000EF86E00019CEF10F016
:10202800146A156A115012101BE0010E136E04D0C9
:10203800D89011361236132A12AEFAD7D890143621
:10204800153611500F5C1250105805E311500F5EF1
:102058001250105A1480D89012321132132EEED723
:1020680014C00FF015C010F0120081B81CD082AA5D
:10207800476A4FEC11F039EC11F00001A2514B5CAA
:102088000EE2020E4B64020C050E0F6E9A51ECEC38
:1020980010F00001FE6F9251FE5DD8A01200AC6BEB
:1020A800000E3EEF12F0ECEC12F0070E4EEF13F0BC
:1020B800D9CF03F0DACF04F09DB29EA203D0B3ECDF
:1020C80013F011D0F2B8F2A203D0A3EC13F00BD0A6
:1020D800F0B6F0A003D0CDEC12F005D0F0B8F0A225
:1020E80002D0C2EC12F004C0DAFF03C0D9FF51924B
:1020F80011001850191017E0010E1A6E04D0D8906C
:10210800183619361A2A19AEFAD71850165C19500B
:10211800175804E31850165E1950175AD8901932F8
:1021280018321A2EF2D716C016F017C017F0120080
:10213800700ED36ED3A4FED7A8EC0AF059EC0EF0BB
:10214800B8EC10F09FEC0FF0DAEC11F01FEC12F085
:102158000FEC12F087EC12F065EC11F06BEC12F05A
:10216800DFEC05F067EF00F0F28EF28CF29AF2984D
:10217800F296F294F292F290F18EF18CF19CF18A3F
:10218800F188F194F190F08EF08CF098F096F0923E
:10219800F090D08EFEEC11F09F96120081B813D00B
:1021A8004FEC11F039EC11F00001A3514B5C07E240
:1021B800020E4B64020C93519A5DD8A01200AC6BCE
:1021C800000E3EEF12F0ECEC12F0070E4EEF13F09B
:1021D800106E126A0F5014E0010E116E03D0D890E1
:1021E8000F36112A0FAEFBD7D89012360F50105C5D
:1021F80003E30F50105E1280D8900F32112EF4D7DF
:10220800125012000F6E0F50D8B4490C010AD8B4FE
:10221800210C030AD8B4410C010AD8B4520C070A9D
:10222800D8B44C0C010AD8B4420C030AD8B4500CE8
:10223800F90AD8B4480C200C176E17504CC015F08A
:10224800166A155E000E165A090E15240F6E000E3A
:102258001620106E126A0A0E116E25EC0EF00F5041
:102268006A0FD96EDA6ADF5012004FA4120001C15A
:1022780080F202C181F203C182F204C183F205C176
:1022880084F206C185F207C186F20101005169ECAA
:1022980000F04F9412004FA61200C1C180F2C2C1D3
:1022A80081F2C3C182F2C4C183F2C5C184F2C6C13E
:1022B80085F2C7C186F20101C05169EC00F04F9662
:1022C8001200B79EB78CB79A180EB712B784B79298
:1022D800876A886A610E916EA80E906EB790876AB9
:1022E800886AA590A380A49012001EEC0CF01EEC46
:1022F8000CF01EEC0CF01EEC0CF01EEC0CF01EECBE
:102308000CF01EEC0CF01EEC0CF01EEC0CF01EEFAA
:102318000CF0462A800E4624D96EDA6A010EDA22BB
:10232800DF5009E0800E4624D96EDA6A010EDA22FF
:10233800DF50AD6E12009D981200A492A382A49261
:1023480050804FAA80B412001F0E4E6403D0A469B7
:102358002FEF12F04E50080DF3CFA4F02FEF12F02C
:102368000001FE6F88C0FFF08C6BA1EC12F002D068
:102378004FEC11F00001FE518C5DFAE3FF51D8B427
:1023880087EC13F012000F501102F3CF13F0F4CFC3
:1023980014F00F501202F350142610501102F3508B
:1023A800142613C00FF014C010F0120095869584FF
:1023B8009592C79EC79CC78CC69EC69CC68AC6886F
:1023C800C698C650F00B0509C66E9E969D861200EB
:1023D8001A6E1A500F6E106A116A8E0E126E000E67
:1023E800136E70EC0DF00FC017F010C018F011C08C
:1023F80019F01200639C6350F00B0809636EA392F6
:10240800A592A492629C6250F00B0809626EA39494
:10241800A594A4941200D59ED59CD59AD598D59606
:10242800070ED512D512D550F80B0409D56EF194C4
:10243800F29AF2941200C26AC16A940EC06EC05039
:10244800F80B0109C06EC00E9A6E996A030EB86E39
:10245800B96AC2801200010E6DEC13F0A492A49424
:10246800A3A405D00A0E0001A96FBFEF13F0A3843F
:10247800BFEF13F00F6E4C506A0FD96EDA6A0FC0B7
:10248800DFFF0FC0AAF04C2A0A0E4C18D8B44C6AC9
:102498001200056E4C506A0FD96EDA6A05C0DFFF6C
:1024A80005C0AAF04C2A0A0E4C18D8B44C6A12007F
:1024B800016E4C506A0FD96EDA6A01C0DFFF01C0A5
:1024C800AAF04C2A0A0E4C18D8B44C6A1200630EB3
:1024D8007B6E7A6A7F6A800E7E6E3F0E6F6E6E6AC2
:1024E8006D6A050E6B6E6A6A1200116E106A3A0EFA
:1024F800116005D02F0E116402D0010E106E10C0AD
:102508000FF00F301200240ECA6ECA50870B400914
:10251800CA6EFC0ECA16C80ECB6E9F929F82C80C5C
:10252800000E6DEC13F0A394A4948DEC13F000014D
:10253800A66B4EC0A4F04D6A1200D76AD66AD5BE03
:1025480004D0F28AF2948B8AD58E010E886F010C22
:102558008B9201D000F0CC50FDE18B828B74F0920D
:102568004728476E1200F090482A4850D8A4120015
:102578008B848B908B92010E4EEF13F08B9201D0CF
:1025880000F0CC50FDE18B828B74F0924728476EA7
:102598001200F090482A4850D8A412008B848B90DF
:1025A8008B92010E5EEF13F0106E116A03D01EECD1
:1025B8000CF0112A1050115CFAE3120080B404D018
:1025C800896B010E4D6E010C010E896F4D6A120068
:1025D800ADEC13F08B908B926B6A8C988C9A8C9CD8
:1025E8008C9E1200B0EC13F08B908B926B6A8C98D7
:1025F8008C9A8C9C8C9E1200B6EC13F08B908B926C
:102608006B6A8C988C9A8C9C8C9E120000018A05AF
:10261800D8B41200010E8A6FF092F088010C000104
:102628008B05D8B41200010E8B6FF090F086010C68
:1026380000018A05D8B41200010E8A6FF092F08862
:10264800010C00018B05D8B41200010E8B6FF090BD
:10265800F086010C4B6AA16BA66BA1EC12F0476ADD
:102668008B9412009E6B4B6AA16BA66BA1EC12F0C7
:10267800486A1200F288F29282B61200AC6B4D0ED4
:102688003EEF12F04B6AA16BA66BA1EC12F0F0883A
:10269800476A1200106E010E3EEC12F010C0A9F04D
:1026A800ECEF12F0066E010E4DEC12F006C0A9F028
:1026B800F6EF12F0026E010E5CEC12F002C0A9F007
:1026C80000EF13F000018A51D8B412008A6BF09819
:1026D80012000F6E0F0402E1898C1200899C12000F
:1026E800056E050402E1898C1200899C1200AB88F2
:1026F8009E9A9D8A9E989D8812008B51D8B412008C
:102708008B6BF0961200D59EF29AF2940001886BBA
:102718001200B790A490876A886A1200B790A490B4
:10272800876A886A12005090A392A4921200F292CB
:10273800040E4EEF13F08B848B948B841200F2926C
:10274800040E5EEF13F09D829E9212009E92C2824A
:1027580012009D929E9212009D929E9212009E924D
:10276800C28212009D929E92120087EF13F0F29897
:102778001200A4981200B7801200A4981200B78023
:0227880012003D
:103EA4000001000A006400E803102701001000006C
:103EB400010010636F6E7369676E653D2564206948
:103EC4005F313D256420695F323D2564206475744B
:103ED400793D2564206572726575723D25642050B4
:103EE4006174696E6167655F4E625F457373616992
:103EF4003D256420436170746575725F4361706F22
:103F0400745F4E625F4576656E656D656E743D25C2
:103F1400640025303258202530325820253032585C
:103F24002025303258202530325820253032582070
:103F3400253032582025303258202530325820255B
:103F44003032582025303258202530315820253041
:103F540031582025303158202530325825303258F8
:103F6400202530325800636F6E7369676E653D2596
:103F74006420706174696E3D25642070696F6E3DC4
:103F8400256420706C6174696E653D2564207065DC
:103F94006C6C653D2564006E625F733D2564206E24
:103FA400625F50696F6E3D2564206E625F54696D77
:103FB40065725F353D256400457461743D25642058
:103FC4006E625F735F666F6E6374696F6E6E656D4C
:103FD400656E743D256400303132333435363738FC
:103FE4003941424344454600253032582530325841
:0B3FF400253032580025303158000005
:020000040020DA
:08000000FFFFFFFFFFFFFFFF00
:020000040030CA
:0E000000FFC8083E1C9981FF0FC00FE00F40A3
:00000001FF
