:040000006BEF00F0B2
:0600080051827FEF0EF0B3
:100018005180D8CF08F0E8CF09F0E0CF0AF0E1CF5F
:100028000BF0E2CF0CF0D9CF0DF0DACF0EF0A3B27F
:10003800A4A207D0A49282A63AD0030E99EC10F09D
:1000480036D0A3B4A4A402D0A49431D09DB69EA661
:1000580003D02CEC09F02BD09DB89EA803D0FAEC65
:100068000FF025D09DBA9EAA0BD04FB803D0B3ECA1
:1000780009F01DD0AECF45F0456A9E9A4F9817D02B
:10008800F2BAF2A403D086EC0DF011D0A3B0A4A06C
:1000980003D0F4EC0CF00BD0A3B8A4A803D00EEC5A
:1000A80012F005D09DBC9EAC02D0BEEC07F00EC08D
:1000B800DAFF0DC0D9FF0CC0E2FF0BC0E1FF0AC098
:1000C800E0FF09C0E8FF08C0D8FF5190100035EFE5
:1000D8000EF0406E77D3F9C080F2D00E020180276F
:1000E800804780478B508019FB0B80198B6E12005C
:1000F800AB0E1B6EB90E1C6E3F0E1D6E98C01EF027
:100108001F6A56EC04F0AB0E0F6E7AEF0AF0AB0ED6
:100118001B6EB70E1C6E3E0E1D6E95C01EF01F6A3C
:1001280098C020F0216A97C022F0236A86C024F084
:1001380087C025F084C026F085C027F09AC028F033
:10014800296A9DC02AF02B6A56EC04F0DCD7AB0E66
:100158001B6EEC0E1C6E3F0E1D6E000E48EC0FF071
:100168001E6E1F6A010E48EC0FF0206E216AA7C0B0
:1001780022F0236A56EC04F0C6D7416A426A41501D
:10018800B408D96EDA6A4D5041240F6E000E422031
:10019800106E126A0A0E116E28EC0CF00F506A0FDE
:1001A800E16EE26AE7502EEC0FF0DF6E414A422A18
:1001B80042BEE5D7425003E10A0E415CE0E300018C
:1001C800B56BA1D7AB0E1B6E9B0E1C6E3F0E1D6E42
:1001D800A5C01EF01F6A9FC020F0216AA3C022F0AC
:1001E800236A56EC04F08FD70001F951050DF3CFBF
:1001F80095F01200AB0E1B6EF90E1C6E3F0E1D6EB5
:10020800AAC01EF01F6A56EC04F07DD7AB0E1B6E19
:10021800B90E1C6E3F0E1D6E0001F951D00F48EC4F
:100228000FF01E6E1F6A56EC04F06DD70001F951ED
:100238008AEF10F00001FB510A0DF3CF80F2FA515A
:10024800640DF350020180250001FC25300F906FEA
:1002580012000001FB510A0DF3CF80F2FA51640D30
:10026800F350020180250001FC25300F4A6E120070
:10027800D00E0201806F81690001F9510201826F7D
:10028800836B80518227815183238351D8A4120024
:100298008251010AD8B41200030ACCE0010AD9E05D
:1002A80012000001FB510A0DF3CF80F2FA51640DE0
:1002B800F350020180250001FC25300F4B6E4BC026
:1002C80095F095C094F0D2D00001FB510A0DF3CF00
:1002D80080F2FA51640DF350020180250001FC25DB
:1002E800300FA46FC3D00001FB510A0DF3CF80F289
:1002F800FA51640DF350020180250001FC25300FEE
:10030800A26FB4D00001FB510A0DF3CF80F2FA516D
:10031800640DF350020180250001FC25300FA16F08
:10032800A1C0EBF0A3D00001FB510A0DF3CF80F27E
:10033800FA51640DF350020180250001FC25300FAD
:10034800A06F94D00001FA51D00F9C6F9CC09DF013
:100358008DD00001FA51D00F9A6F99C09AF086D0CB
:100368000001FB510A0DF3CF80F2FA51640DF350EE
:10037800020180250001FC25300F4B6E4BC093F025
:1003880075D00001FB510A0DF3CF80F2FA51640DCC
:10039800F350020180250001FC25300F4B6E4BC045
:1003A80092F064D00001FB510A0DF3CF80F2FA51AC
:1003B800640DF350020180250001FC25300F4B6EBF
:1003C8004BC091F053D0D00E0201806F81690001BB
:1003D800F9510201826F836B8051822781518323F7
:1003E800835144E1825101E15CD7010A01E16CD7F4
:1003F800030A01E178D7010A85E0070A94E0010AB7
:10040800A1E0030AA6E0010AABE00F0ABAE0010A7C
:10041800C9E02CD0AB0E1B6E6A0E1C6E3F0E1D6E13
:1004280095C01EF01F6AA4C020F0216AA2C022F065
:10043800236AA1C024F0256AA0C026F0276A56ECDA
:1004480004F061D6AB0E1B6EBC0E1C6E3F0E1D6E0B
:10045800A8C01EF01F6AA5C020F0216A56EC04F05F
:1004680052D6FAC0ABF00001AC6B4DD6D00E0201EB
:10047800806F81690001F9510201826F836B80519D
:100488008227815183238351D8A412008251C2E06C
:10049800010AD8E0080AD8A41200E3D7080E75EFBD
:1004A80011F0AB0E1B6EB90E1C6E3F0E1D6EA9C06F
:1004B8001EF01F6A56EC04F026D6AB0E1B6E160E05
:1004C8001C6E3F0E1D6E000E48EC0FF01E6E1F6A6C
:1004D800010E48EC0FF0206E216AA7C022F0236AB3
:1004E8009FC024F0256A98C026F0276A97C028F094
:1004F800296A95C02AF02B6AA4C02CF02D6AA2C0E4
:100508002EF02F6AA1C030F0316AA0C032F0336AF1
:10051800010E80A4000E346E356A010E82A6000E0C
:10052800366E376A010E8DA4000E386E396AB0CF68
:100538003AF03B6AAFCF3CF03D6AA9C03EF03F6A53
:1005480056EC04F0E0D5070E75EF11F0000E8AECBA
:1005580010F00001AA6B120082A6CCD00001F9515C
:10056800D00F8D6FFA51D00F8F6FFC510A0DF3CF5A
:1005780080F2FB51640DF350020180250001FD2536
:10058800300F8E6F08D04F8C04D04F9C4F8A18D0F4
:100598004F9C4F9A15D0D00E0201806F81690001DF
:1005A800FE510201826F836B805182278151832320
:1005B8008351EEE18251010AE6E0030AE6E0E8D75A
:1005C800310E0001FE1902E14F8C01D04F9C9CC0F6
:1005D8009DF099C09AF0010EAA6F18D0A85101E1B8
:1005E800A8D0020EA819D8B412000EEC11F0E6EC4F
:1005F8000FF09FD0A85101E1A0D0030EA819D8B4DC
:1006080012000EEC11F0E6EC0FF097D08D51F2E0ED
:10061800010AD8A41200E2D782A66CD00001F951D1
:10062800D00F8D6FFA51D00F8F6FFC510A0DF3CF99
:1006380080F2FB51640DF350020180250001FD2575
:10064800300F8E6F010EAA6F18D0A85101E17ED02D
:10065800050EA819D8B412000EEC11F0E6EC0FF054
:1006680075D0A85101E175D0040EA819D8B41200AC
:100678000EEC11F0E6EC0FF06CD08D51F2E0010AAF
:10068800D8A41200E2D782A635D00001F951D00FC4
:100698008D6FFA51D00F8F6FFC510A0DF3CF80F296
:1006A800FB51640DF350020180250001FD25300F38
:1006B8008E6F010EAA6F18D0A85101E153D0090E10
:1006C800A819D8B412000EEC11F0E6EC0FF04AD0DD
:1006D800A85101E14AD0080EA819D8B412000EECAE
:1006E80011F0E6EC0FF041D08D51F2E0010AD8A4E8
:1006F8001200E2D7040E75EF11F00001F951D00F86
:10070800966FFA51D00F8D6FFC510A0DF3CF80F21E
:10071800FB51640DF350020180250001FD25300FC7
:100728009E6F2CD0A76B9CC09DF099C09AF008D002
:10073800A851020E8AEF10F0A851030E8AEF10F0AC
:100748008D51FAE0010AD8A41200F2D7050E8AEFFB
:1007580010F0040E8AEF10F08D51FBE0010AD8A4C6
:100768001200F4D7090E8AEF10F0080E8AEF10F085
:100778008D51FBE0010AD8A41200F4D79651010A62
:10078800D1E0030AE9E0010AD8A41200F1D7000178
:10079800F9B102D08D9401D08D841200000E8AEC3C
:1007A80010F0D7D6F9C0A5F012000001F951E3EF17
:1007B8000DF0000E8AEF10F00D0E02014019D8A4BA
:1007C8008B8412004050300AF4E0010AD8B41200B9
:1007D800030AD8B41200010AD8B41200070AD8B420
:1007E8001200010AD8B41200030AD8B41200010A90
:1007F800D8B41200760A02E10EEF11F0030A01E103
:1008080042D7060AD8B41200010A01E1FFD4030A4C
:10081800D8B412000E0A01E199D6010AC6E0050A09
:1008280001E159D4010A01E168D71D0A01E1CBD5DC
:10083800020AADE0010A01E140D6070A01E12ED61D
:10084800010AD8B41200030A01E110D6010A01E135
:100858007AD60F0A01E180D6020A01E1DDD6380A0C
:1008680001E1C8D4010A01E1BFD4060A01E1DED4DE
:10087800030A98E00F0A01E13BD4050A01E17DD49F
:10088800010A01E1F5D41D0A01E141D4010A01E19F
:1008980099D4030A83E0010A01E159D4050A01E168
:1008A80000D68AD71E0E0001F16F5ED1250EF81909
:1008B80007E01B50D96EDA6AF8C0DFFF1B2A54D153
:1008C800F66BF76BF56B03D0F5851C4A1D2A1CC027
:1008D800F6FF1DC0F7FF0800F550300AF5E01CC010
:1008E800F6FF1DC0F7FF0800F550C5EC10F032E325
:1008F8000001F66BF76BF6C00FF0F7C010F0126A44
:100908000A0E116E34EC10F00FC0F6F010C0F7F0BC
:10091800D00E0001EC6FED691CC0F6FF1DC0F7FF9B
:100928000800F550EE6FEF6BEC51EE27ED51EF2319
:10093800EE51F627EF51F7231C4A1D2A1CC0F6FF7B
:100948001DC0F7FF0800F550C5EC10F003E3D3D73E
:10095800F58F16D01CC0F6FF1DC0F7FF1C4A1D2AD4
:100968000800F5CFF8F00001F85101E109D1580A63
:10097800EFE03C0A05E00D0A03E0110AE9E0F4D0D3
:10098800F5BF12D0F151D96EDA6ADECFF3F0DDCFC0
:10099800F4F0020EF127F4AF3DD0030EF513F36D1A
:1009A800F41FD8B0F42B36D0F151D96EDA6ADECF05
:1009B800F3F0DDCFF4F0020EF1272CD0010EF86F22
:1009C800F851020DA50EF324F66E3E0EF420F76ED4
:1009D8000900F550F35D0900F550F45920E3F82BB0
:1009E800050EF8191CE0ECD7010EF86FF851020D4E
:1009F800AF0EF324F66E3E0EF420F76E0900F550A4
:100A0800F35D0900F550F4590AE3F82B040EF819C0
:100A180006E0ECD7F551800BD1E0800AE5E0F6510D
:100A2800F71108E0F5C0ECF0030EEC1703E0F60749
:100A3800D8A0F707800EF8BF7F0EEC6FF651F85D6F
:100A4800F751800AEC5907E2F851F65F000EF8BF3B
:100A5800FF0EF75B02D0F66BF76BF5A518D0F5C063
:100A6800ECF0030EEC1706E01B50D96EDA6A2D0E77
:100A7800DF6E1B2AF651F71124E01B50D96EDA6A93
:100A8800300EDF6E1B2AF607D8A0F707F3D7F6510A
:100A9800F7110CE01B50D96EDA6A200EDF6E1B2AA4
:100AA800F607D8A0F707F651F711F4E1F5C0ECF016
:100AB800030EEC1706E01B50D96EDA6A2D0EDF6EB6
:100AC8001B2AF8C0F2F04DD0F251020DA50EF32406
:100AD800F66E3E0EF420F76E0900F5CF11F00A000D
:100AE800F5CF12F0F3C00FF0F4C010F05AEC0EF08E
:100AF8000FC016F010C017F0196A0A0E186EA0EC95
:100B08000EF01650300FF86F26D0F3C00FF0F4C077
:100B180010F0F251020DAF0EF324F66E3E0EF420E3
:100B2800F76E0900F5CF11F00A00F5CF12F05AEC74
:100B38000EF00F500F0BF06FDB0EF025F66EF76A14
:100B48003F0EF7220800F5CFF8F005D0F551800BDD
:100B5800BBE0800ADAE01B50D96EDA6AF8C0DFFF22
:100B68001B2AF207F229F2E11CC0F6FF1DC0F7FFAD
:100B78001C4A1D2A0800F5CFF8F0F85101E096D676
:100B88001B50D96EDA6ADF6A000CBCEC0FF0A6ECD9
:100B98000FF00CD1010E90EC0FF04FBC1DD0010EE0
:100BA8000201846F620E856F000E91EC08F000015F
:100BB8009A079A5108E0A56B030E90EC0FF0020E0D
:100BC8008AEC10F0E2D7020E8AEC10F00001AA6B52
:100BD800070E8AEC10F0D9D7000E8AEC10F000014D
:100BE800AA6BD3D7010E90EC0FF0010E0201846FAF
:100BF800620E856F010E91EC08F000019A079A5178
:100C080008E0A56B030E90EC0FF0030E8AEC10F0D1
:100C1800BCD7030E8AEC10F00001AA6B070E8AEC11
:100C280010F0B3D70001AA6B460E8AEC10F0ADD7CE
:100C3800010E48EC0FF0020AADE0010AD3E0F2D74A
:100C4800010E90EC0FF0010E0201846F620E856FA9
:100C5800000E91EC08F000019D079D5108E09B6B88
:100C6800030E90EC0FF0020E8AEC10F08ED7020EF5
:100C78008AEC10F00001AA6B070E8AEC10F085D7F9
:100C8800010E90EC0FF0010E0201846F620E856F69
:100C9800010E91EC08F000019D079D5108E09B6B47
:100CA800030E90EC0FF0030E8AEC10F06ED7030ED3
:100CB8008AEC10F00001AA6B4D0E8AEC10F065D793
:100CC8000001AA6B460E8AEC10F05FD7010E48ECC3
:100CD8000FF0020AB5E0010AD3E0F2D7010EAA6FBD
:100CE8004D0E8AEC10F00201896B010EA4EC11F094
:100CF800040E3AEC11F0000EA4EC11F0020E3AECDE
:100D080011F00201892B030E8965EFD73ED7010E3A
:100D1800AA6F4D0E8AEC10F00201896B010EA4EC4B
:100D280011F0040E3AEC11F0000EA4EC11F0020ED2
:100D38003AEC11F00201892B030E8965EFD725D70C
:100D4800A751010ACBE0030AE2E0010A01E170D7EA
:100D5800070ABCE01AD7010E8D6F8D51DCEC0BF041
:100D680014D78D6B8D51DCEC0BF00FD78FC086F24A
:100D78008EC087F28D5132EC0BF007D78FC086F208
:100D88008EC087F28D5132EC0BF0FFD68FC086F201
:100D98008EC087F28D5187EC0BF0F7D68FC086F2A4
:100DA8008EC087F28D5187EC0BF0EFD60001A85169
:100DB800010AC6E0030ACFE0010AD3E0070ADEE031
:100DC800010AD4E00D0AEAE0010AE0E0DED6C7D065
:100DD800C4CF98F04F8E9E9C9851955D846F856B1B
:100DE800D8A0850785BF08D0855103E10A0E845D28
:100DF80003E3864B872B06D085AF04D08451862722
:100E0800855187237B500F6E106A86510F5C1050F6
:100E1800800A116E8751800A115803E27BCF86F051
:100E280003D087AF02D0866B876B8645E846FC0BFC
:100E3800796E86C00FF087C010F0D8900F36103644
:100E4800D8900F36103610C00FF0106A0FBE106819
:100E58000F50786E1200C4CF97F04F8E9E9C97511A
:100E6800955D846F856BD8A0850785BF08D08551AF
:100E780003E10A0E845D03E3864B872B05D085AF1B
:100E880003D08607D8A087077B500F6E106A86515B
:100E98000F5C1050800A116E8751800A115803E2C6
:100EA8007BCF86F003D087AF02D0866B876B8645F1
:100EB800E846FC0B776E86C00FF087C010F0D8901C
:100EC8000F361036D8900F36103610C00FF0106A53
:100ED8000FBE10680F50766E1200C4CF97F04F8E79
:100EE8009E9C9751955D846F856BD8A0850785BFBB
:100EF80008D0855103E10A0E845D03E3864B872BF6
:100F080005D085AF03D08607D8A087077B500F6E22
:100F1800106A86510F5C1050800A116E8751800A42
:100F2800115803E27BCF86F003D087AF02D0866BDF
:100F3800876B8645E846FC0B776E86C00FF087C046
:100F480010F0D8900F361036D8900F36103610C0E3
:100F58000FF0106A0FBE10680F50766E1200000175
:100F68009651010A01E134D7030A01E174D7010A55
:100F7800B4E01200C7D0C4CF98F04F8E9E9C985111
:100F8800955D846F856BD8A0850785BF08D085518E
:100F980003E10A0E845D03E3864B872B06D085AFF9
:100FA80004D084518627855187237B50056E066AB5
:100FB8008651055C0650800A076E8751800A0758DB
:100FC80003E27BCF86F003D087AF02D0866B876BB6
:100FD8008645E846FC0B796E86C005F087C006F0AA
:100FE800D89005360636D8900536063606C005F080
:100FF800066A05BE06680550786E1200C4CF97F0E1
:101008004F8E9E9C9751955D846F856BD8A0850700
:1010180085BF08D0855103E10A0E845D03E3864B42
:10102800872B05D085AF03D08607D8A087077B50CC
:10103800056E066A8651055C0650800A076E875160
:10104800800A075803E27BCF86F003D087AF02D02F
:10105800866B876B8645E846FC0B776E86C005F085
:1010680087C006F0D89005360636D890053606367D
:1010780006C005F0066A05BE06680550766E1200C1
:10108800C4CF97F04F8E9E9C9751955D846F856B6A
:10109800D8A0850785BF08D0855103E10A0E845D75
:1010A80003E3864B872B05D085AF03D08607D8A0EE
:1010B80087077B50056E066A8651055C0650800AD4
:1010C800076E8751800A075803E27BCF86F003D06A
:1010D80087AF02D0866B876B8645E846FC0B776E38
:1010E80086C005F087C006F0D89005360636D89039
:1010F8000536063606C005F0066A05BE06680550C0
:10110800766E120000019651010A01E134D7030AF4
:1011180001E174D7010AB4E01200866F0A0E0001DB
:10112800956FB8EC11F0B5EC0DF0CC6A9E92020107
:1011380085A344EC11F0010E0001966F26EC0DF02A
:101148000201860503E18C9A8C8802D08C988C8ADF
:10115800040E796E786A010E6B6E8B800001856BC8
:10116800846F8445E846FC0B796E8445E846030B9A
:10117800786E826B836B4F9EA3989D8CF28CF28E57
:10118800F3EC11F09E9C55EC11F057D0020E0001C3
:101198009E6F020185390F0B0001A66F020185A51C
:1011A80004D00001D890A635A6274FAA0FD0BCECD2
:1011B8000FF0A6EC0FF0020E0001A81903E0030ED1
:1011C800A8190CE1A651A55D09E2F1D7BCEC0FF016
:1011D800A6EC0FF00001A651A55DF8E308EC12F0AB
:1011E8000AEC12F0020EA81903E0030EA8192AE16E
:1011F800000E8AEC10F00001AA6B24D085C29EF084
:1012080000019F6B9DEC11F021EC10F079EC0FF0D0
:101218000201860504E1020E0001A819F7E00201A7
:10122800865104E1030E0001A819F0E0EBEC11F07F
:1012380008EC12F00AEC12F005D002018451DEE04D
:10124800010AA4E0A3989D9CB8EC11F00EEF11F0F0
:101258009E96C9CF07F075D00D0E071812E0442AE4
:10126800400E4424D96EDA6A010EDA22DF5009E012
:10127800400E4424D96EDA6A010EDA22DF50C96EB4
:1012880012004F901200000E4324D96EDA6A020E43
:10129800DA2207C0DFFF000E4324D96EDA6A020E95
:1012A800DA22DF50010ED8A4000E056E000E43248A
:1012B800D96EDA6A020EDA220D0EDE18010ED8A4F3
:1012C800000E0510E8A031D0435015E0076A0FD092
:1012D800000E0724D96EDA6A020EDA22000E0724FD
:1012E800E16EE26A010EE222DFCFE7FF072A4350F0
:1012F800075CEEE34F84000E4324D96EDA6A010ED0
:10130800DA22000EDF6A436A12004350056E066A4D
:10131800052A000E0622400E0518061004E10101F8
:10132800006B436A1200432A1200010E4FA4000EFC
:10133800056E066A0650D8A412000550E6E0010AB8
:101348001200010E4FA0000E056E066A0650D8A4C2
:101358001200055098E0010A01E17ED712009E9A1A
:10136800ABA204D0AB9EAB8EAB98AB88400E4524A5
:10137800D96EDA6A020EDA22AECFDFFF400E4524BC
:10138800D96EDA6A020EDA22DF50010ED8A4000EF6
:10139800056E400E4524D96EDA6A020EDA220D0E69
:1013A800DE18010ED8A4000E0510E8A032D0455072
:1013B80015E0076A0FD0400E0724D96EDA6A020ECC
:1013C800DA22C00E0724E16EE26A010EE222DFCFC4
:1013D800E7FF072A4550075CEEE34F86C00E452419
:1013E800D96EDA6A010EDA22000EDF6A456A120047
:1013F8004550056E066A052A000E0622400E05189D
:10140800061005E10101C06B456AEFEF11F0452AAE
:101418001200010E4FA6000E056E066A0650D8A4EB
:1014280012000550E5E0010A02E1EFEF11F01200A9
:101438000A0E0001A96F0F6A0F506A0FD96EDA6A97
:10144800DF680F2A090E0F64F7D74D6A0001A869F3
:10145800A76BA66BA56B5A0EA46F2D0EA46F320E48
:10146800A46FA36B020EA26F1E0EA16FA06F0A0ECF
:101478004C6E50909F6B9E6B4E6A8A6B010E966FF6
:10148800956B8D6B8E6B4F9C8F6B640E946F936F07
:10149800926F916F2D0E906F160E4A6E040E4B6E62
:1014A8004B50050DF3CF95F0030E996F9C6F9B6B16
:1014B8009A6B9D6B886B496A486A9DEC11F0896B41
:1014C800476AAA6B090E746F070E756F060E766F62
:1014D800050E776F040E786F030E796F4F924F9851
:1014E8004F964F94436A446A4F901200ACA2FED7BD
:1014F800106A116A1AD01050AB0FD96EDA6A800ED2
:101508001024E16E010E1120E26EDFCFE7FF1050CC
:10151800AB0FD96EDA6A400E1024E16E010E11206D
:10152800E26EDFCFE7FF104A112A115009E1400EA1
:10153800105C06E21050AB0FD96EDA6ADF50DBE1BF
:10154800800E1024D96E010E1120DA6E0D0EDF6E9A
:10155800400E1024D96E010E1120DA6E0D0EDF6ECA
:10156800810E1024D96E010E1120DA6EDF6A410E49
:101578001024D96E010E1120DA6EDF6A466A446AB9
:101588004F80400E4424D96EDA6A010EDA22DF5009
:10159800C96E800E4624D96EDA6A010EDA22DF504F
:1015A800AD6E9D8812001A0E0F6EF80EE82EFED74B
:1015B8000F2EFCD700F000F01A0E0F6EF80EE82E72
:1015C800FED70F2EFCD700F000F01A0E0F6EF80EA3
:1015D800E82EFED70F2EFCD700F000F01A0E0F6E83
:1015E800F80EE82EFED70F2EFCD700F000F01A0EEA
:1015F8000F6EF80EE82EFED70F2EFCD700F000F085
:101608001A0E0F6EF80EE82EFED70F2EFCD700F03C
:1016180000F01A0E0F6EF80EE82EFED70F2EFCD72C
:1016280000F000F01A0E0F6EF80EE82EFED70F2EFF
:10163800FCD700F000F01A0E0F6EF80EE82EFED759
:101648000F2EFCD700F000F01A0E0F6EF80EE82EE1
:10165800FED70F2EFCD700F000F012000201886FB1
:10166800C4EC11F0EBEC11F087C2A0F00A0E0001F7
:10167800956FB5EC0DF0CC6A9E928D94020E966F24
:101688008FEC0CF00201880503E18C9E8C8C02D053
:101698008C9C8C8E040E776E766A040E6B6E8B8231
:1016A8000001856B010E846F8445E846FC0B776E5C
:1016B8008445E846030B766E826B836B4F9EA39836
:1016C8009D8C9D8CF28CF28EF3EC11F09E9C4DEC6F
:1016D80011F00EEC10F00201880504E1050E00017E
:1016E800A819F7E00201885104E1040E0001A819C5
:1016F800F0E0A3989D9C8D94C4EC11F00EEC11F0D1
:10170800010E90EF0FF00201886FC4EC11F0EBECC2
:1017180011F087C24CF00A0E0001956FB5EC0DF080
:10172800CC6A9E928D84030E966F8FEC0CF00201AA
:10173800885103E18C9E8C8C02D08C9C8C8E040E7C
:10174800776E766A040E6B6E8B820001856B010ED4
:10175800846F8445E846FC0B776E8445E846030BA6
:10176800766E826B836B4F9EA3989D8C9D8CF28CBA
:10177800F28EF3EC11F09E9C5DEC11F0DDEC0EF0B6
:101788000201885104E1080E0001A819F7E00201DE
:10179800880504E1090E0001A819F0E0A3989D9CB2
:1017A8008D94C4EC11F00EEC11F0010E90EF0FF0D7
:1017B8000201846F0A0E0001956FB8EC11F0B5ECC8
:1017C8000DF0CC6A9E92010E966F26EC0DF0020188
:1017D800840503E18C9A8C8802D08C988C8A040E3C
:1017E800796E786A010E6B6E8B800001856B846F51
:1017F8008445E846FC0B796E8445E846030B786E11
:10180800826B836B4F9EA3989D8CF28CF28EF3ECC7
:1018180011F09E9C55EC11F061EC0FF0020184056B
:1018280004E1020E0001A819F7E00201845104E165
:10183800030E0001A819F0E008EC12F0A3989D9C93
:10184800B8EC11F00EEF11F0146A10AE06D00F6C60
:10185800101ED8B0102A010E146E12AE04D0116CEE
:10186800121ED8B0122A1150121017E0010E136E72
:1018780004D0D89011361236132A12AEFAD7115066
:101888000F5C1250105804E311500F5E1250105A9A
:10189800D89012321132132EF2D7145004E00F6C84
:1018A800101ED8B0102A0FC00FF010C010F0120090
:1018B800926892809282928492869288928A929C6E
:1018C800928EFA0E936E9390938293949386938854
:1018D800938A938C938EDC0E946E94909492949445
:1018E80094869488948A949C948E0F0E956E070E15
:1018F800956E95809582958495969598959A959CE0
:10190800959E966E968096829694896A8A6A8B6A64
:101918008C6A8D6A1200C29AC298C250F30B0409ED
:10192800C26EC2903F0EC116C198C16AC09EC05017
:10193800870B1009C06EC050F80B0409C06EC05068
:10194800F80B0109C06E140EC06EC050F80B0109E7
:10195800C06E3F0E9A169A50E00B10099A6EE00E70
:101968009A16100E9A6E9A6A996A030EB86EB96A38
:101978009D8C9E9C9F9CC2804F9E1200A49000014B
:10198800A32BA251A31915E14E0401E09F2BA56BCF
:101998009E5103E09E519F5D02E24FAA1200000E85
:1019A800A4EC11F00001AA6BE1EC11F0000E8AEF33
:1019B80010F0A151A319D8A41200960508E180B42B
:1019C80006D04E0404E1060E75EC11F004D0AA6BA3
:1019D800060E8AEC10F0000EA4EC11F0E1EF11F005
:1019E800A4900001A32BA251A31915E14E0401E014
:1019F8009F2BA56B9E5103E09E519F5D02E24FAA6B
:101A08001200000EABEC11F00001AA6BE6EC11F02D
:101A1800000E99EF10F0A151A319D8A41200960551
:101A280008E180B406D04E0404E1060E7DEC11F006
:101A380004D0AA6B060E99EC10F0000EABEC11F076
:101A4800E6EF11F0C29AC298F30EC216C2903F0E8A
:101A5800C116C198C16AC09EC050870B1009C06EDC
:101A6800C050F80B0409C06EC050F80B0109C06ED5
:101A7800140EC06EC050F80B0109C06E3F0E9A16C6
:101A88009A50E00B10099A6EE00E9A16100E9A6E94
:101A98009A6A996A030EB86EB96A9D8C9E9C9F9C3F
:101AA800C2804F9E1200F2940001A52B9B2B8A2B1B
:101AB800020EA5191FE012006DEC11F00001935100
:101AC800945D03E294C095F0120093C095F0120063
:101AD80065EC11F000019251945DF4E392C095F029
:101AE800120065EC11F000019151945DEBE391C097
:101AF80095F012009651010ADFE0030AE9E0010AB5
:101B0800F0E01200F2940001A52B9B2B8A2B020E09
:101B1800A5191FE012008DEC11F000019351945D9E
:101B280003E294C095F0120093C095F0120085EC82
:101B380011F000019251945DF4E392C095F0120007
:101B480085EC11F000019151945DEBE391C095F0A3
:101B580012009651010ADFE0030AE9E0010AF0E009
:101B680012007E9E040E796E786A1F0E7B6E3F0E01
:101B78007B6E7B2800018B6F7F6B7E697A6A030E10
:101B88007F6E0F0E7F16F30E7F167F50FC0B020937
:101B98007F6E800E7E6E6F508F0B10096F6E0F0E6A
:101BA8006F123F0E6F6E6E6A010E6E6E6D6A050ED5
:101BB8006B6E6A6A6E96706A0A0E716E0A0C126E05
:101BC800125002E1D0EF11F0010A02E1E0EF10F04B
:101BD800030A02E103EF11F0010A02E1CAEF11F072
:101BE800070A02E1F9EF11F0010A02E157EF0DF0DF
:101BF800030A02E1F6EF11F0010A02E1C2EF0CF06C
:101C08000F0A02E1EBEF06F0010A02E10CEF12F015
:101C180012009D9A9D98480EAA6EAA86800EAB6EF9
:101C2800240EAC6EAC98AC84220EAF6E110EAF6E63
:101C3800120EAF6E100EAF6EB06A0B0EAF6E330E93
:101C4800B06ECD0EAF6EB06AAA96AC94AC980C0E7E
:101C5800AF6EB06A466A456A9F989F9A4F96B2EFF0
:101C680011F002EE00F0800EEE6AE806FDE101EEEA
:101C780000F011EE00F0EE6AE550E150FCE1E250B0
:101C8800FAE100EE60F08C0EEE6AE806FDE1506ABB
:101C98004F6A00EE43F00C0EEE6AE806FDE1519043
:101CA8005192000EF86E0001BFEF0EF0146A156A2B
:101CB800115012101BE0010E136E04D0D89011368B
:101CC8001236132A12AEFAD7D89014361536115098
:101CD8000F5C1250105805E311500F5E1250105A45
:101CE8001480D89012321132132EEED714C00FF090
:101CF80015C010F01200D9CF03F0DACF04F09DB26E
:101D08009EA203D002EC12F011D0F2B8F2A203D0D6
:101D1800D6EC11F00BD0F0B6F0A003D0ECEC10F03C
:101D280005D0F0B8F0A202D024EC11F004C0DAFF1C
:101D380003C0D9FF519211001850191017E0010E75
:101D48001A6E04D0D890183619361A2A19AEFAD74E
:101D58001850165C1950175804E31850165E19509D
:101D6800175AD890193218321A2EF2D716C016F010
:101D780017C017F01200700ED36ED3A4FED71CEC58
:101D88000AF05CEC0CF0FAEC0EF00DEC0EF047ECFF
:101D980010F07AEC10F06AEC10F0D3EC10F0D2EC02
:101DA8000FF0B7EC10F0DCEC11F0C9EC05F06BEFBC
:101DB80000F082AA476ABCEC0FF0A6EC0FF04C507A
:101DC8000001A55D0EE2020EA565020C050E0F6E60
:101DD800975114EC0FF00201846F4A50845DD8A02B
:101DE80012000001AA6B000E8AEF10F0F28EF28C3E
:101DF800F29AF298F296F294F292F290F18EF18CB5
:101E0800F19CF18AF188F194F190F08EF08CF098C1
:101E1800F096F092F090D08E59EC10F09F96120048
:101E2800106E126A0F5014E0010E116E03D0D89094
:101E38000F36112A0FAEFBD7D89012360F50105C10
:101E480003E30F50105E1280D8900F32112EF4D792
:101E5800125012000F6E0F50D8B4490C010AD8B4B2
:101E6800210C030AD8B4410C010AD8B4520C070A51
:101E7800D8B44C0C010AD8B4420C030AD8B4500C9C
:101E8800F90AD8B4480C200C176E17504DC015F03D
:101E9800166A155E000E165A090E15240F6E000EEE
:101EA8001620106E126A0A0E116E28EC0CF00F50F4
:101EB8006A0FD96EDA6ADF50120082B802D00001C8
:101EC800896BBCEC0FF0A6EC0FF000018D0505E165
:101ED80082A603D0000E8AEC10F000018D51D8B410
:101EE80080A41200000E8AEF10F082B802D0000120
:101EF800896BBCEC0FF0A6EC0FF00001A551A45DB6
:101F080003E2030E75EC11F0B40E00019B65B40CEE
:101F18009CC09DF09B6B12000201846F88C085F203
:101F280000018A6BF8EC10F002D0BCEC0FF0020153
:101F3800845100018A5DF9E302018551D8B4BEECF1
:101F480011F012004FA4120001C1F9F002C1FAF019
:101F580003C1FBF004C1FCF005C1FDF006C1FEF0B1
:101F680007C1FFF0010100516DEC00F04F94120021
:101F78004FA61200C1C1F9F0C2C1FAF0C3C1FBF00B
:101F8800C4C1FCF0C5C1FDF0C6C1FEF0C7C1FFF079
:101F98000101C0516DEC00F04F961200B79EB78C4E
:101FA800B79A180EB712B784B792876A886A610E13
:101FB800916EA80E906EB790876A886AA590A380E4
:101FC800A4901200D7EC0AF0D7EC0AF0D7EC0AF08C
:101FD800D7EC0AF0D7EC0AF0D7EC0AF0D7EC0AF005
:101FE800D7EC0AF0D7EC0AF0D7EF0AF0462A800EB1
:101FF8004624D96EDA6A010EDA22DF5009E0800E33
:102008004624D96EDA6A010EDA22DF50AD6E12006C
:102018009D981200BCEC0FF0A6EC0FF00001A05147
:10202800A55D07E2020EA565020C9051975DD8A048
:102038001200AA6B000E8AEF10F0A492A382A49259
:1020480050804FAA80B412001F0EEB6503D0A1691F
:10205800CAEF11F0EB51080DF3CFA1F0CAEF11F060
:102068000F501102F3CF13F0F4CF14F00F501202F7
:10207800F350142610501102F350142613C00FF019
:1020880014C010F01200958695849592C79EC79C3F
:10209800C78CC69EC69CC68AC688C698C650F00B12
:1020A8000509C66E9E969D861200639C6350F00BD0
:1020B8000809636EA392A592A492629C6250F00BE9
:1020C8000809626EA394A594A4941200D59ED59C89
:1020D800D59AD598D596070ED512D512D550F80BA6
:1020E8000409D56EF194F29AF2941200C26AC16A98
:1020F800940EC06EC050F80B0109C06EC00E9A6EE7
:10210800996A030EB86EB96AC28012000F6E4D50FC
:102118006A0FD96EDA6A0FC0DFFF0FC0A8F04D2A28
:102128000A0E4D18D8B44D6A1200056E4D506A0F4C
:10213800D96EDA6A05C0DFFF05C0A8F04D2A0A0E7D
:102148004D18D8B44D6A1200016E4D506A0FD96E01
:10215800DA6A01C0DFFF01C0A8F04D2A0A0E4D1847
:10216800D8B44D6A1200630E7B6E7A6A7F6A800E5D
:102178007E6E3F0E6F6E6E6A6D6A050E6B6E6A6AD2
:102188001200116E106A3A0E116005D02F0E1164FC
:1021980002D0010E106E10C00FF00F301200240E86
:1021A800CA6ECA50870B4009CA6EFC0ECA16C80E02
:1021B800CB6E9F929F82C80CF0900001892B8951A9
:1021C800D8A412008B848B908B92010E75EF11F0BE
:1021D800F0900001892B8951D8A412008B848B9030
:1021E8008B92010E95EF11F0D76AD66AD5BE04D04E
:1021F800F28AF2948B8AD58E010E886F010C8B922D
:1022080001D000F0CC50FDE18B828B74F09247280E
:10221800476E1200FCEC11F08D948B908B926B6AD8
:102228008C988C9A8C9C8C9E1200FFEC11F08D94EB
:102238008B908B926B6A8C988C9A8C9C8C9E1200DB
:102248008B9201D000F0CC50FDE18B828B74F09220
:102258004728476E120005EC12F08D948B908B92F4
:102268006B6A8C988C9A8C9C8C9E1200106E116AEA
:1022780003D0D7EC0AF0112A1050115CFAE31200CF
:10228800F288F29282B612000001AA6B4D0E8AEF14
:1022980010F0A56B9F6BA36BF8EC10F0476A8B945A
:1022A80012009B6BA56B9F6BA36BF8EC10F0896B0E
:1022B8001200A56B9F6BA36BF8EC10F0F088476ACF
:1022C80012004804D8B41200010E486EF092F0884B
:1022D800010C4904D8B41200010E496EF090F08642
:1022E800010C106E010E8AEC10F010C0A7F00EEF72
:1022F80011F0066E010E99EC10F006C0A7F019EF68
:1023080011F04804D8B41200010E486EF092F0881B
:10231800010C4904D8B41200010E496EF090F08601
:10232800010C026E010EA8EC10F002C0A7F02FEF0E
:1023380011F080B403D0010E4E6E010C4E6A1200EB
:102348000F6E0F0402E1898C1200899C1200056E41
:10235800050402E1898C1200899C1200AB889E9AC0
:102368009D8A9E989D8812004950D8B41200496AE7
:10237800F0961200D59EF29AF2940001886B120032
:102388004850D8B41200486AF0981200A49282B655
:102398001200030E8AEF10F0F29280A41200020ECF
:1023A8008AEF10F0F29280A41200020EA8EF10F04B
:1023B800F288F292A492A3821200B790A490876A3E
:1023C800886A1200B790A490876A886A12005090B1
:1023D800A392A49212008B848B948B8412009D820A
:1023E8009E9212009E92C2821200A394A49412009C
:1023F8009D929E9212009D929E9212009E92C2827F
:1024080012009D929E921200BEEF11F0F2981200F7
:08241800A4981200A498120020
:103EA4000001000A006400E803102701001000006C
:103EB400010010636F6E7369676E653D2564206948
:103EC4005F313D256420695F323D2564206475744B
:103ED400793D2564206572726575723D25642050B4
:103EE4006174696E6167655F4E625F457373616992
:103EF4003D256420436170746575725F4361706F22
:103F0400745F4E625F4576656E656D656E743D25C2
:103F1400640025303258202530325820253032585C
:103F24002025303258202530325820253032582070
:103F3400253032582025303258202530325820255B
:103F44003032582025303258202530315820253041
:103F540031582025303158202530325825303258F8
:103F6400202530325800636F6E7369676E653D2596
:103F74006420706174696E3D25642070696F6E3DC4
:103F8400256420706C6174696E653D2564207065DC
:103F94006C6C653D2564006E625F733D2564206E24
:103FA400625F50696F6E3D2564206E625F54696D77
:103FB40065725F353D256400457461743D25642058
:103FC4006E625F735F666F6E6374696F6E6E656D4C
:103FD400656E743D256400303132333435363738FC
:103FE4003941424344454600253032582530325841
:0B3FF400253032580025303158000005
:020000040020DA
:08000000FFFFFFFFFFFFFFFF00
:020000040030CA
:0E000000FFC8083E1C9981FF0FC00FE00F40A3
:00000001FF
